{
    "abi": [
        {
            "inputs": [
                {
                    "internalType": "bytes32",
                    "name": "productName",
                    "type": "bytes32"
                },
                {
                    "internalType": "address",
                    "name": "token",
                    "type": "address"
                },
                {
                    "internalType": "uint256",
                    "name": "riskpoolId",
                    "type": "uint256"
                },
                {
                    "internalType": "address",
                    "name": "registry",
                    "type": "address"
                }
            ],
            "stateMutability": "nonpayable",
            "type": "constructor"
        },
        {
            "anonymous": false,
            "inputs": [
                {
                    "indexed": false,
                    "internalType": "uint256",
                    "name": "id",
                    "type": "uint256"
                }
            ],
            "name": "LogComponentApproved",
            "type": "event"
        },
        {
            "anonymous": false,
            "inputs": [
                {
                    "indexed": false,
                    "internalType": "uint256",
                    "name": "id",
                    "type": "uint256"
                }
            ],
            "name": "LogComponentArchived",
            "type": "event"
        },
        {
            "anonymous": false,
            "inputs": [
                {
                    "indexed": false,
                    "internalType": "bytes32",
                    "name": "componentName",
                    "type": "bytes32"
                },
                {
                    "indexed": false,
                    "internalType": "enum IComponent.ComponentType",
                    "name": "componentType",
                    "type": "uint8"
                },
                {
                    "indexed": false,
                    "internalType": "address",
                    "name": "componentAddress",
                    "type": "address"
                },
                {
                    "indexed": false,
                    "internalType": "address",
                    "name": "registryAddress",
                    "type": "address"
                }
            ],
            "name": "LogComponentCreated",
            "type": "event"
        },
        {
            "anonymous": false,
            "inputs": [
                {
                    "indexed": false,
                    "internalType": "uint256",
                    "name": "id",
                    "type": "uint256"
                }
            ],
            "name": "LogComponentDeclined",
            "type": "event"
        },
        {
            "anonymous": false,
            "inputs": [
                {
                    "indexed": false,
                    "internalType": "uint256",
                    "name": "id",
                    "type": "uint256"
                }
            ],
            "name": "LogComponentPaused",
            "type": "event"
        },
        {
            "anonymous": false,
            "inputs": [
                {
                    "indexed": false,
                    "internalType": "bytes32",
                    "name": "componentName",
                    "type": "bytes32"
                },
                {
                    "indexed": false,
                    "internalType": "enum IComponent.ComponentType",
                    "name": "componentType",
                    "type": "uint8"
                },
                {
                    "indexed": false,
                    "internalType": "address",
                    "name": "componentAddress",
                    "type": "address"
                },
                {
                    "indexed": false,
                    "internalType": "uint256",
                    "name": "id",
                    "type": "uint256"
                }
            ],
            "name": "LogComponentProposed",
            "type": "event"
        },
        {
            "anonymous": false,
            "inputs": [
                {
                    "indexed": false,
                    "internalType": "uint256",
                    "name": "id",
                    "type": "uint256"
                }
            ],
            "name": "LogComponentResumed",
            "type": "event"
        },
        {
            "anonymous": false,
            "inputs": [
                {
                    "indexed": false,
                    "internalType": "uint256",
                    "name": "id",
                    "type": "uint256"
                },
                {
                    "indexed": false,
                    "internalType": "enum IComponent.ComponentState",
                    "name": "stateOld",
                    "type": "uint8"
                },
                {
                    "indexed": false,
                    "internalType": "enum IComponent.ComponentState",
                    "name": "stateNew",
                    "type": "uint8"
                }
            ],
            "name": "LogComponentStateChanged",
            "type": "event"
        },
        {
            "anonymous": false,
            "inputs": [
                {
                    "indexed": false,
                    "internalType": "uint256",
                    "name": "id",
                    "type": "uint256"
                }
            ],
            "name": "LogComponentSuspended",
            "type": "event"
        },
        {
            "anonymous": false,
            "inputs": [
                {
                    "indexed": false,
                    "internalType": "uint256",
                    "name": "id",
                    "type": "uint256"
                }
            ],
            "name": "LogComponentUnpaused",
            "type": "event"
        },
        {
            "anonymous": false,
            "inputs": [
                {
                    "indexed": false,
                    "internalType": "bytes32",
                    "name": "processId",
                    "type": "bytes32"
                },
                {
                    "indexed": false,
                    "internalType": "address",
                    "name": "policyHolder",
                    "type": "address"
                },
                {
                    "indexed": false,
                    "internalType": "uint256",
                    "name": "sumInsured",
                    "type": "uint256"
                },
                {
                    "indexed": false,
                    "internalType": "address",
                    "name": "nominee",
                    "type": "address"
                }
            ],
            "name": "LogNebulaApplicationAccepted",
            "type": "event"
        },
        {
            "anonymous": false,
            "inputs": [
                {
                    "indexed": false,
                    "internalType": "bytes32",
                    "name": "processId",
                    "type": "bytes32"
                },
                {
                    "indexed": false,
                    "internalType": "address",
                    "name": "policyHolder",
                    "type": "address"
                },
                {
                    "indexed": false,
                    "internalType": "uint256",
                    "name": "premium",
                    "type": "uint256"
                }
            ],
            "name": "LogNebulaApplicationRejected",
            "type": "event"
        },
        {
            "anonymous": false,
            "inputs": [
                {
                    "indexed": false,
                    "internalType": "address",
                    "name": "policyHolder",
                    "type": "address"
                },
                {
                    "indexed": false,
                    "internalType": "address",
                    "name": "nominee",
                    "type": "address"
                },
                {
                    "indexed": false,
                    "internalType": "uint256",
                    "name": "sumInsuredAmount",
                    "type": "uint256"
                },
                {
                    "indexed": false,
                    "internalType": "uint256",
                    "name": "premiumAmount",
                    "type": "uint256"
                }
            ],
            "name": "LogNebulaApplicationSubmitted",
            "type": "event"
        },
        {
            "anonymous": false,
            "inputs": [
                {
                    "indexed": false,
                    "internalType": "bytes32",
                    "name": "processId",
                    "type": "bytes32"
                },
                {
                    "indexed": false,
                    "internalType": "uint256",
                    "name": "claimId",
                    "type": "uint256"
                },
                {
                    "indexed": false,
                    "internalType": "uint256",
                    "name": "payoutAmount",
                    "type": "uint256"
                }
            ],
            "name": "LogNebulaClaimConfirmed",
            "type": "event"
        },
        {
            "anonymous": false,
            "inputs": [
                {
                    "indexed": false,
                    "internalType": "bytes32",
                    "name": "processId",
                    "type": "bytes32"
                },
                {
                    "indexed": false,
                    "internalType": "uint256",
                    "name": "claimId",
                    "type": "uint256"
                },
                {
                    "indexed": false,
                    "internalType": "uint256",
                    "name": "payoutAmount",
                    "type": "uint256"
                }
            ],
            "name": "LogNebulaClaimDenied",
            "type": "event"
        },
        {
            "anonymous": false,
            "inputs": [
                {
                    "indexed": false,
                    "internalType": "string",
                    "name": "nominee",
                    "type": "string"
                }
            ],
            "name": "LogNebulaNomineeFound",
            "type": "event"
        },
        {
            "anonymous": false,
            "inputs": [
                {
                    "indexed": false,
                    "internalType": "bytes32",
                    "name": "processId",
                    "type": "bytes32"
                },
                {
                    "indexed": false,
                    "internalType": "uint256",
                    "name": "claimId",
                    "type": "uint256"
                },
                {
                    "indexed": false,
                    "internalType": "uint256",
                    "name": "payoutId",
                    "type": "uint256"
                },
                {
                    "indexed": false,
                    "internalType": "uint256",
                    "name": "payoutAmount",
                    "type": "uint256"
                }
            ],
            "name": "LogNebulaPayoutExecuted",
            "type": "event"
        },
        {
            "anonymous": false,
            "inputs": [
                {
                    "indexed": false,
                    "internalType": "bytes32",
                    "name": "processId",
                    "type": "bytes32"
                },
                {
                    "indexed": false,
                    "internalType": "address",
                    "name": "policyHolder",
                    "type": "address"
                },
                {
                    "indexed": false,
                    "internalType": "address",
                    "name": "nominee",
                    "type": "address"
                },
                {
                    "indexed": false,
                    "internalType": "uint256",
                    "name": "sumInsuredAmount",
                    "type": "uint256"
                },
                {
                    "indexed": false,
                    "internalType": "uint256",
                    "name": "premium",
                    "type": "uint256"
                }
            ],
            "name": "LogNebulaPolicyCreated",
            "type": "event"
        },
        {
            "anonymous": false,
            "inputs": [
                {
                    "indexed": false,
                    "internalType": "bytes32",
                    "name": "processid",
                    "type": "bytes32"
                }
            ],
            "name": "LogNebulaPolicyExpired",
            "type": "event"
        },
        {
            "anonymous": false,
            "inputs": [
                {
                    "indexed": false,
                    "internalType": "bytes32",
                    "name": "processId",
                    "type": "bytes32"
                },
                {
                    "indexed": false,
                    "internalType": "address",
                    "name": "policyHolder",
                    "type": "address"
                },
                {
                    "indexed": false,
                    "internalType": "uint256",
                    "name": "premium",
                    "type": "uint256"
                }
            ],
            "name": "LogNebulaPremiumPaymentFailed",
            "type": "event"
        },
        {
            "anonymous": false,
            "inputs": [
                {
                    "indexed": false,
                    "internalType": "bytes32",
                    "name": "processId",
                    "type": "bytes32"
                },
                {
                    "indexed": false,
                    "internalType": "uint256",
                    "name": "feeAmount",
                    "type": "uint256"
                },
                {
                    "indexed": false,
                    "internalType": "uint256",
                    "name": "netAmount",
                    "type": "uint256"
                }
            ],
            "name": "LogNebulaPremiumPaymentSuccess",
            "type": "event"
        },
        {
            "anonymous": false,
            "inputs": [
                {
                    "indexed": false,
                    "internalType": "uint256",
                    "name": "payoutAmount",
                    "type": "uint256"
                }
            ],
            "name": "LogPayoutZero",
            "type": "event"
        },
        {
            "anonymous": false,
            "inputs": [
                {
                    "indexed": false,
                    "internalType": "uint256",
                    "name": "componentId",
                    "type": "uint256"
                }
            ],
            "name": "LogProductApproved",
            "type": "event"
        },
        {
            "anonymous": false,
            "inputs": [
                {
                    "indexed": false,
                    "internalType": "address",
                    "name": "productAddress",
                    "type": "address"
                }
            ],
            "name": "LogProductCreated",
            "type": "event"
        },
        {
            "anonymous": false,
            "inputs": [
                {
                    "indexed": false,
                    "internalType": "uint256",
                    "name": "componentId",
                    "type": "uint256"
                }
            ],
            "name": "LogProductDeclined",
            "type": "event"
        },
        {
            "anonymous": false,
            "inputs": [
                {
                    "indexed": false,
                    "internalType": "uint256",
                    "name": "componentId",
                    "type": "uint256"
                }
            ],
            "name": "LogProductProposed",
            "type": "event"
        },
        {
            "anonymous": false,
            "inputs": [
                {
                    "indexed": true,
                    "internalType": "address",
                    "name": "previousOwner",
                    "type": "address"
                },
                {
                    "indexed": true,
                    "internalType": "address",
                    "name": "newOwner",
                    "type": "address"
                }
            ],
            "name": "OwnershipTransferred",
            "type": "event"
        },
        {
            "inputs": [],
            "name": "PAYOUT_FACTOR_LARGE",
            "outputs": [
                {
                    "internalType": "uint256",
                    "name": "",
                    "type": "uint256"
                }
            ],
            "stateMutability": "view",
            "type": "function"
        },
        {
            "inputs": [],
            "name": "POLICY_FLOW",
            "outputs": [
                {
                    "internalType": "bytes32",
                    "name": "",
                    "type": "bytes32"
                }
            ],
            "stateMutability": "view",
            "type": "function"
        },
        {
            "inputs": [],
            "name": "VERSION",
            "outputs": [
                {
                    "internalType": "bytes32",
                    "name": "",
                    "type": "bytes32"
                }
            ],
            "stateMutability": "view",
            "type": "function"
        },
        {
            "inputs": [
                {
                    "internalType": "bytes32",
                    "name": "processId",
                    "type": "bytes32"
                }
            ],
            "name": "acceptApplication",
            "outputs": [
                {
                    "internalType": "bool",
                    "name": "_policyId",
                    "type": "bool"
                }
            ],
            "stateMutability": "nonpayable",
            "type": "function"
        },
        {
            "inputs": [
                {
                    "internalType": "string",
                    "name": "",
                    "type": "string"
                }
            ],
            "name": "activePolicy",
            "outputs": [
                {
                    "internalType": "bool",
                    "name": "",
                    "type": "bool"
                }
            ],
            "stateMutability": "view",
            "type": "function"
        },
        {
            "inputs": [],
            "name": "applicationsCount",
            "outputs": [
                {
                    "internalType": "uint256",
                    "name": "numberOfApplications",
                    "type": "uint256"
                }
            ],
            "stateMutability": "view",
            "type": "function"
        },
        {
            "inputs": [
                {
                    "internalType": "string",
                    "name": "email",
                    "type": "string"
                },
                {
                    "internalType": "uint256",
                    "name": "age",
                    "type": "uint256"
                },
                {
                    "internalType": "uint256",
                    "name": "gender",
                    "type": "uint256"
                },
                {
                    "internalType": "address",
                    "name": "nominee",
                    "type": "address"
                },
                {
                    "internalType": "string",
                    "name": "objectName",
                    "type": "string"
                },
                {
                    "internalType": "uint256",
                    "name": "sumInsuredAmount",
                    "type": "uint256"
                }
            ],
            "name": "applyForPolicy",
            "outputs": [
                {
                    "internalType": "bytes32",
                    "name": "processId",
                    "type": "bytes32"
                }
            ],
            "stateMutability": "nonpayable",
            "type": "function"
        },
        {
            "inputs": [],
            "name": "approvalCallback",
            "outputs": [],
            "stateMutability": "nonpayable",
            "type": "function"
        },
        {
            "inputs": [
                {
                    "internalType": "uint256",
                    "name": "amount",
                    "type": "uint256"
                }
            ],
            "name": "approveTokenTransfer",
            "outputs": [],
            "stateMutability": "nonpayable",
            "type": "function"
        },
        {
            "inputs": [],
            "name": "arbitrator",
            "outputs": [
                {
                    "internalType": "contract NebulaArbitrator",
                    "name": "",
                    "type": "address"
                }
            ],
            "stateMutability": "view",
            "type": "function"
        },
        {
            "inputs": [],
            "name": "archiveCallback",
            "outputs": [],
            "stateMutability": "nonpayable",
            "type": "function"
        },
        {
            "inputs": [
                {
                    "internalType": "uint256",
                    "name": "sumInsuredAmount",
                    "type": "uint256"
                }
            ],
            "name": "calculatePremium",
            "outputs": [
                {
                    "internalType": "uint256",
                    "name": "premiumAmount",
                    "type": "uint256"
                }
            ],
            "stateMutability": "pure",
            "type": "function"
        },
        {
            "inputs": [
                {
                    "internalType": "string",
                    "name": "email",
                    "type": "string"
                },
                {
                    "internalType": "uint256",
                    "name": "age",
                    "type": "uint256"
                },
                {
                    "internalType": "uint256",
                    "name": "gender",
                    "type": "uint256"
                },
                {
                    "internalType": "uint256",
                    "name": "sumInsuredAmount",
                    "type": "uint256"
                }
            ],
            "name": "checkEligibilty",
            "outputs": [
                {
                    "internalType": "string",
                    "name": "e",
                    "type": "string"
                },
                {
                    "internalType": "uint256",
                    "name": "a",
                    "type": "uint256"
                },
                {
                    "internalType": "uint256",
                    "name": "g",
                    "type": "uint256"
                },
                {
                    "internalType": "uint256",
                    "name": "oV",
                    "type": "uint256"
                },
                {
                    "internalType": "uint8",
                    "name": "status",
                    "type": "uint8"
                }
            ],
            "stateMutability": "nonpayable",
            "type": "function"
        },
        {
            "inputs": [
                {
                    "internalType": "bytes32",
                    "name": "processId",
                    "type": "bytes32"
                },
                {
                    "internalType": "uint256",
                    "name": "amount",
                    "type": "uint256"
                }
            ],
            "name": "collectPremium",
            "outputs": [
                {
                    "internalType": "bool",
                    "name": "success",
                    "type": "bool"
                },
                {
                    "internalType": "uint256",
                    "name": "feeAmount",
                    "type": "uint256"
                },
                {
                    "internalType": "uint256",
                    "name": "netAmount",
                    "type": "uint256"
                }
            ],
            "stateMutability": "nonpayable",
            "type": "function"
        },
        {
            "inputs": [
                {
                    "internalType": "bytes32",
                    "name": "processId",
                    "type": "bytes32"
                }
            ],
            "name": "declineApplication",
            "outputs": [
                {
                    "internalType": "bool",
                    "name": "status",
                    "type": "bool"
                }
            ],
            "stateMutability": "nonpayable",
            "type": "function"
        },
        {
            "inputs": [],
            "name": "declineCallback",
            "outputs": [],
            "stateMutability": "nonpayable",
            "type": "function"
        },
        {
            "inputs": [
                {
                    "internalType": "bytes",
                    "name": "data",
                    "type": "bytes"
                }
            ],
            "name": "decodeApplicationParameterFromData",
            "outputs": [
                {
                    "internalType": "string",
                    "name": "objectName",
                    "type": "string"
                }
            ],
            "stateMutability": "pure",
            "type": "function"
        },
        {
            "inputs": [
                {
                    "internalType": "string",
                    "name": "email",
                    "type": "string"
                }
            ],
            "name": "encodeApplicationParametersToData",
            "outputs": [
                {
                    "internalType": "bytes",
                    "name": "data",
                    "type": "bytes"
                }
            ],
            "stateMutability": "pure",
            "type": "function"
        },
        {
            "inputs": [
                {
                    "internalType": "bytes32",
                    "name": "processId",
                    "type": "bytes32"
                }
            ],
            "name": "expirePolicy",
            "outputs": [],
            "stateMutability": "nonpayable",
            "type": "function"
        },
        {
            "inputs": [],
            "name": "getApplicationDataStructure",
            "outputs": [
                {
                    "internalType": "string",
                    "name": "dataStructure",
                    "type": "string"
                }
            ],
            "stateMutability": "view",
            "type": "function"
        },
        {
            "inputs": [
                {
                    "internalType": "uint256",
                    "name": "idx",
                    "type": "uint256"
                }
            ],
            "name": "getApplicationId",
            "outputs": [
                {
                    "internalType": "bytes32",
                    "name": "processId",
                    "type": "bytes32"
                }
            ],
            "stateMutability": "view",
            "type": "function"
        },
        {
            "inputs": [],
            "name": "getClaimDataStructure",
            "outputs": [
                {
                    "internalType": "string",
                    "name": "dataStructure",
                    "type": "string"
                }
            ],
            "stateMutability": "view",
            "type": "function"
        },
        {
            "inputs": [],
            "name": "getId",
            "outputs": [
                {
                    "internalType": "uint256",
                    "name": "",
                    "type": "uint256"
                }
            ],
            "stateMutability": "view",
            "type": "function"
        },
        {
            "inputs": [],
            "name": "getName",
            "outputs": [
                {
                    "internalType": "bytes32",
                    "name": "",
                    "type": "bytes32"
                }
            ],
            "stateMutability": "view",
            "type": "function"
        },
        {
            "inputs": [],
            "name": "getOwner",
            "outputs": [
                {
                    "internalType": "address",
                    "name": "",
                    "type": "address"
                }
            ],
            "stateMutability": "view",
            "type": "function"
        },
        {
            "inputs": [],
            "name": "getPayoutDataStructure",
            "outputs": [
                {
                    "internalType": "string",
                    "name": "dataStructure",
                    "type": "string"
                }
            ],
            "stateMutability": "view",
            "type": "function"
        },
        {
            "inputs": [],
            "name": "getPolicyFlow",
            "outputs": [
                {
                    "internalType": "address",
                    "name": "",
                    "type": "address"
                }
            ],
            "stateMutability": "view",
            "type": "function"
        },
        {
            "inputs": [],
            "name": "getRegistry",
            "outputs": [
                {
                    "internalType": "contract IRegistry",
                    "name": "",
                    "type": "address"
                }
            ],
            "stateMutability": "view",
            "type": "function"
        },
        {
            "inputs": [],
            "name": "getRiskpoolId",
            "outputs": [
                {
                    "internalType": "uint256",
                    "name": "",
                    "type": "uint256"
                }
            ],
            "stateMutability": "view",
            "type": "function"
        },
        {
            "inputs": [],
            "name": "getState",
            "outputs": [
                {
                    "internalType": "enum IComponent.ComponentState",
                    "name": "",
                    "type": "uint8"
                }
            ],
            "stateMutability": "view",
            "type": "function"
        },
        {
            "inputs": [],
            "name": "getToken",
            "outputs": [
                {
                    "internalType": "address",
                    "name": "",
                    "type": "address"
                }
            ],
            "stateMutability": "view",
            "type": "function"
        },
        {
            "inputs": [],
            "name": "getType",
            "outputs": [
                {
                    "internalType": "enum IComponent.ComponentType",
                    "name": "",
                    "type": "uint8"
                }
            ],
            "stateMutability": "view",
            "type": "function"
        },
        {
            "inputs": [
                {
                    "internalType": "bytes32",
                    "name": "policyId",
                    "type": "bytes32"
                }
            ],
            "name": "handleClaim",
            "outputs": [],
            "stateMutability": "nonpayable",
            "type": "function"
        },
        {
            "inputs": [],
            "name": "isOracle",
            "outputs": [
                {
                    "internalType": "bool",
                    "name": "",
                    "type": "bool"
                }
            ],
            "stateMutability": "view",
            "type": "function"
        },
        {
            "inputs": [],
            "name": "isProduct",
            "outputs": [
                {
                    "internalType": "bool",
                    "name": "",
                    "type": "bool"
                }
            ],
            "stateMutability": "view",
            "type": "function"
        },
        {
            "inputs": [],
            "name": "isRiskpool",
            "outputs": [
                {
                    "internalType": "bool",
                    "name": "",
                    "type": "bool"
                }
            ],
            "stateMutability": "view",
            "type": "function"
        },
        {
            "inputs": [
                {
                    "internalType": "uint256",
                    "name": "",
                    "type": "uint256"
                }
            ],
            "name": "listOfApplications",
            "outputs": [
                {
                    "internalType": "address",
                    "name": "policyHolder",
                    "type": "address"
                },
                {
                    "internalType": "address",
                    "name": "nominee",
                    "type": "address"
                },
                {
                    "internalType": "uint256",
                    "name": "sumInsuredAmount",
                    "type": "uint256"
                },
                {
                    "internalType": "uint256",
                    "name": "premium",
                    "type": "uint256"
                }
            ],
            "stateMutability": "view",
            "type": "function"
        },
        {
            "inputs": [],
            "name": "maxPolicyCount",
            "outputs": [
                {
                    "internalType": "uint256",
                    "name": "",
                    "type": "uint256"
                }
            ],
            "stateMutability": "view",
            "type": "function"
        },
        {
            "inputs": [],
            "name": "maxSumInsuredAmount",
            "outputs": [
                {
                    "internalType": "uint256",
                    "name": "",
                    "type": "uint256"
                }
            ],
            "stateMutability": "view",
            "type": "function"
        },
        {
            "inputs": [
                {
                    "internalType": "uint256",
                    "name": "requestId",
                    "type": "uint256"
                },
                {
                    "internalType": "bytes32",
                    "name": "policyId",
                    "type": "bytes32"
                },
                {
                    "internalType": "bytes",
                    "name": "response",
                    "type": "bytes"
                }
            ],
            "name": "oracleCallback",
            "outputs": [],
            "stateMutability": "nonpayable",
            "type": "function"
        },
        {
            "inputs": [],
            "name": "owner",
            "outputs": [
                {
                    "internalType": "address",
                    "name": "",
                    "type": "address"
                }
            ],
            "stateMutability": "view",
            "type": "function"
        },
        {
            "inputs": [],
            "name": "pauseCallback",
            "outputs": [],
            "stateMutability": "nonpayable",
            "type": "function"
        },
        {
            "inputs": [],
            "name": "proposalCallback",
            "outputs": [],
            "stateMutability": "nonpayable",
            "type": "function"
        },
        {
            "inputs": [],
            "name": "renounceOwnership",
            "outputs": [],
            "stateMutability": "nonpayable",
            "type": "function"
        },
        {
            "inputs": [],
            "name": "resumeCallback",
            "outputs": [],
            "stateMutability": "nonpayable",
            "type": "function"
        },
        {
            "inputs": [
                {
                    "internalType": "uint256",
                    "name": "capacity",
                    "type": "uint256"
                }
            ],
            "name": "riskPoolCapacityCallback",
            "outputs": [],
            "stateMutability": "nonpayable",
            "type": "function"
        },
        {
            "inputs": [
                {
                    "internalType": "uint256",
                    "name": "id",
                    "type": "uint256"
                }
            ],
            "name": "setId",
            "outputs": [],
            "stateMutability": "nonpayable",
            "type": "function"
        },
        {
            "inputs": [],
            "name": "suspendCallback",
            "outputs": [],
            "stateMutability": "nonpayable",
            "type": "function"
        },
        {
            "inputs": [
                {
                    "internalType": "address",
                    "name": "newOwner",
                    "type": "address"
                }
            ],
            "name": "transferOwnership",
            "outputs": [],
            "stateMutability": "nonpayable",
            "type": "function"
        },
        {
            "inputs": [],
            "name": "unpauseCallback",
            "outputs": [],
            "stateMutability": "nonpayable",
            "type": "function"
        },
        {
            "inputs": [
                {
                    "internalType": "uint256",
                    "name": "incr",
                    "type": "uint256"
                }
            ],
            "name": "updateMaxPolicyCount",
            "outputs": [],
            "stateMutability": "nonpayable",
            "type": "function"
        },
        {
            "inputs": [
                {
                    "internalType": "uint256",
                    "name": "incr",
                    "type": "uint256"
                }
            ],
            "name": "updateMaxSumInsured",
            "outputs": [],
            "stateMutability": "nonpayable",
            "type": "function"
        },
        {
            "inputs": [
                {
                    "internalType": "uint256",
                    "name": "applicationId",
                    "type": "uint256"
                }
            ],
            "name": "viewApplication",
            "outputs": [
                {
                    "internalType": "address",
                    "name": "policyHolder",
                    "type": "address"
                },
                {
                    "internalType": "address",
                    "name": "nominee",
                    "type": "address"
                },
                {
                    "internalType": "uint256",
                    "name": "sumInsuredAmount",
                    "type": "uint256"
                },
                {
                    "internalType": "uint256",
                    "name": "premium",
                    "type": "uint256"
                }
            ],
            "stateMutability": "view",
            "type": "function"
        },
        {
            "stateMutability": "payable",
            "type": "receive"
        }
    ],
    "bytecode": "60806040526064600c5562989680600d553480156200001d57600080fd5b5060405162003e7138038062003e718339810160408190526200004091620004dc565b838370506f6c69637944656661756c74466c6f7760781b848484600182620000683362000352565b6001600160a01b038116620000cf5760405162461bcd60e51b815260206004820152602360248201527f4552524f523a434d502d3030343a52454749535452595f414444524553535f5a60448201526245524f60e81b606482015260840160405180910390fd5b60038054610100600160a81b0319166101006001600160a01b03841602179055620000f9620003a2565b600480546001600160a01b0319166001600160a01b039290921691909117905562000123620003bd565b600580546001600160a01b0319166001600160a01b03929092169190911790556200014d620003ea565b600680546001600160a01b0319166001600160a01b0392909216919091179055600183815560038054849260ff1990911690836002811115620001a057634e487b7160e01b600052602160045260246000fd5b02179055506001546003546040517f04a2dea3211d6352f30925875b6e2e984642f84e1bcffe65ffaa1b04c1197b7a92620001f492909160ff82169130916101009091046001600160a01b03169062000526565b60405180910390a15050600880546001600160a01b0319166001600160a01b0387161790555060098290556200022a8362000404565b600780546001600160a01b0319166001600160a01b0392909216919091179055620002666d50726f647563745365727669636560901b62000404565b600a80546001600160a01b0319166001600160a01b0392909216919091179055620002a36e496e7374616e63655365727669636560881b62000404565b600b80546001600160a01b0319166001600160a01b03929092169190911790556040513081527fced180b842b890d77dab95dcbf4654065589a164226ef9faa91a7601fb67c4679060200160405180910390a15050505050604051620003099062000492565b604051809103906000f08015801562000326573d6000803e3d6000fd5b50600f80546001600160a01b0319166001600160a01b0392909216919091179055506200057192505050565b600080546001600160a01b038381166001600160a01b0319831681178455604051919092169283917f8be0079c531659141344cd1fd0a4f28419497f9722a3daafe3b4186f6b6457e09190a35050565b6000620003b86541636365737360d01b62000404565b905090565b6000620003b87f436f6d706f6e656e744f776e657253657276696365000000000000000000000062000404565b6000620003b86e496e7374616e63655365727669636560881b5b600354604051631c2d8fb360e31b81526004810183905260009161010090046001600160a01b03169063e16c7d989060240160206040518083038186803b1580156200044f57600080fd5b505afa15801562000464573d6000803e3d6000fd5b505050506040513d601f19601f820116820180604052508101906200048a9190620004b8565b90505b919050565b6109a680620034cb83390190565b80516001600160a01b03811681146200048d57600080fd5b600060208284031215620004ca578081fd5b620004d582620004a0565b9392505050565b60008060008060808587031215620004f2578283fd5b845193506200050460208601620004a0565b9250604085015191506200051b60608601620004a0565b905092959194509250565b84815260808101600385106200054c57634e487b7160e01b600052602160045260246000fd5b60208201949094526001600160a01b0392831660408201529116606090910152919050565b612f4a80620005816000396000f3fe60806040526004361061031e5760003560e01c806370d2fe53116101ab578063be169e7e116100f7578063e3ebdea511610095578063f38b3b831161006f578063f38b3b83146108b2578063f41d2480146108d2578063f4fdc1fa146108e8578063ffa1ad741461090657610325565b8063e3ebdea514610835578063e889c23014610872578063f2fde38b1461089257610325565b8063d5de4252116100d1578063d5de4252146107e0578063d651b7b814610800578063d73cd99214610576578063e0815f0d1461082057610325565b8063be169e7e14610576578063d0e0ba95146107a0578063d52d2d06146107c057610325565b806394f64ff4116101645780639aec65ce1161013e5780639aec65ce1461076b578063a18f5ae214610576578063b3fca9bd14610576578063bd1fe5d01461078b57610325565b806394f64ff4146104cc57806395bb88db146107415780639a82f8901461075657610325565b806370d2fe5314610697578063715018a6146106ac5780637b17a8e2146106c157806383f07d25146106e1578063893d20e8146107015780638da5cb5b1461072357610325565b80633d93ab711161026a5780635d1ca63111610223578063638ce0ba116101fd578063638ce0ba1461060257806364034737146106175780636b2996a0146106625780636cc6cde11461067757610325565b80635d1ca631146105af5780635e61aa63146105c4578063637d08f4146105e457610325565b80633d93ab71146105165780633ec92bda146104cc57806347e3b1381461053657806348f54f031461055657806359dacc6a146105765780635ab1bd531461058b57610325565b80631b867c63116102d7578063258d560c116102b1578063258d560c14610497578063296d6c7d146104ac57806339cf5e16146104cc5780633aefc5fc146104f657610325565b80631b867c631461041d5780631d6524fe1461043457806321df0da71461046557610325565b806309128d831461032a5780630afeb6f01461036557806315dae03e146103b057806317d7de7c146103d05780631865c57d146103e55780631a41f66e1461040757610325565b3661032557005b600080fd5b34801561033657600080fd5b5061035270506f6c69637944656661756c74466c6f7760781b81565b6040519081526020015b60405180910390f35b34801561037157600080fd5b506103a0610380366004612839565b805160208183018101805160118252928201919093012091525460ff1681565b604051901515815260200161035c565b3480156103bc57600080fd5b5060035460ff1660405161035c9190612d41565b3480156103dc57600080fd5b50600154610352565b3480156103f157600080fd5b506103fa610922565b60405161035c9190612d27565b34801561041357600080fd5b50610352600c5481565b34801561042957600080fd5b506104326109a8565b005b34801561044057600080fd5b5061045461044f366004612943565b610a00565b60405161035c959493929190612d55565b34801561047157600080fd5b506008546001600160a01b03165b6040516001600160a01b03909116815260200161035c565b3480156104a357600080fd5b506103a0610aec565b3480156104b857600080fd5b506103a06104c7366004612783565b610b1c565b3480156104d857600080fd5b506040805160208101909152600081525b60405161035c9190612d14565b34801561050257600080fd5b50610432610511366004612783565b610b30565b34801561052257600080fd5b50610432610531366004612783565b610cb9565b34801561054257600080fd5b50610432610551366004612783565b610d3d565b34801561056257600080fd5b50610352610571366004612783565b610e40565b34801561058257600080fd5b50610432610e5f565b34801561059757600080fd5b5061047f60035461010090046001600160a01b031690565b3480156105bb57600080fd5b50600254610352565b3480156105d057600080fd5b506104326105df366004612b87565b610ea9565b3480156105f057600080fd5b506007546001600160a01b031661047f565b34801561060e57600080fd5b50610432610fdb565b34801561062357600080fd5b50610637610632366004612783565b611028565b604080516001600160a01b03958616815294909316602085015291830152606082015260800161035c565b34801561066e57600080fd5b50600e54610352565b34801561068357600080fd5b50600f5461047f906001600160a01b031681565b3480156106a357600080fd5b50600954610352565b3480156106b857600080fd5b5061043261118a565b3480156106cd57600080fd5b506103a06106dc366004612783565b61119c565b3480156106ed57600080fd5b506104326106fc366004612783565b6111a7565b34801561070d57600080fd5b5061047f600080546001600160a01b03166109a3565b34801561072f57600080fd5b506000546001600160a01b031661047f565b34801561074d57600080fd5b50610352606481565b34801561076257600080fd5b506103a061136a565b34801561077757600080fd5b50610637610786366004612783565b611372565b34801561079757600080fd5b506104326113b8565b3480156107ac57600080fd5b506104326107bb366004612783565b611405565b3480156107cc57600080fd5b506103526107db366004612783565b61144f565b3480156107ec57600080fd5b506104e96107fb3660046127d4565b6114eb565b34801561080c57600080fd5b5061043261081b366004612783565b611501565b34801561082c57600080fd5b506103a0611580565b34801561084157600080fd5b506108556108503660046127b3565b611589565b60408051931515845260208401929092529082015260600161035c565b34801561087e57600080fd5b5061035261088d3660046128b2565b6115e7565b34801561089e57600080fd5b506104326108ad3660046126d5565b611c42565b3480156108be57600080fd5b506104e96108cd366004612839565b611cb8565b3480156108de57600080fd5b50610352600d5481565b3480156108f457600080fd5b50610432610903366004612783565b50565b34801561091257600080fd5b5061035264302e302e3160d81b81565b600654600254604051635e966e4560e01b815260048101919091526000916001600160a01b031690635e966e459060240160206040518083038186803b15801561096b57600080fd5b505afa15801561097f573d6000803e3d6000fd5b505050506040513d601f19601f820116820180604052508101906109a3919061281a565b905090565b6109bd6810dbdb5c1bdb995b9d60ba1b611cfe565b6001600160a01b0316336001600160a01b0316146109f65760405162461bcd60e51b81526004016109ed90612d8f565b60405180910390fd5b6109fe611d80565b565b60606000808080851580610a185750633b9aca008610155b15610a3157508793508692508591508490506000610ae1565b601189604051610a419190612c51565b9081526040519081900360200190205460ff1615610a6d57508793508692508591508490506000610ae1565b601189604051610a7d9190612c51565b9081526040519081900360200190205460ff1615610aa957508793508692508591508490506000610ae1565b6012881080610ab85750603c88115b15610ad157508793508692508591508490506000610ae1565b5087935086925085915084905060015b945094509450945094565b600060025b60035460ff166002811115610b1657634e487b7160e01b600052602160045260246000fd5b14905090565b6000610b2782611dbd565b5060015b919050565b306001600160a01b03166321df0da76040518163ffffffff1660e01b815260040160206040518083038186803b158015610b6957600080fd5b505afa158015610b7d573d6000803e3d6000fd5b505050506040513d601f19601f82011682018060405250810190610ba191906126f1565b6001600160a01b031663095ea7b3600b60009054906101000a90046001600160a01b03166001600160a01b031663e00246046040518163ffffffff1660e01b815260040160206040518083038186803b158015610bfd57600080fd5b505afa158015610c11573d6000803e3d6000fd5b505050506040513d601f19601f82011682018060405250810190610c3591906126f1565b6040516001600160e01b031960e084901b1681526001600160a01b03909116600482015260248101849052604401602060405180830381600087803b158015610c7d57600080fd5b505af1158015610c91573d6000803e3d6000fd5b505050506040513d601f19601f82011682018060405250810190610cb5919061270d565b5050565b610cc1611e18565b80600a14610d295760405162461bcd60e51b815260206004820152602f60248201527f4552524f523a4e4542554c413a20414c4c4f57454420494e4352454d454e542060448201526e0495320464143544f52204f4620313608c1b60648201526084016109ed565b80600d54610d379190612e57565b600d5550565b610d45611e18565b6000610d5082611e72565b90506000610d6182606001516114eb565b9050601181604051610d739190612c51565b9081526040519081900360200190205460ff16610dd25760405162461bcd60e51b815260206004820152601f60248201527f4552524f523a4e4542554c412d3030353a455850495245445f504f4c4943590060448201526064016109ed565b610ddb83611f2c565b6000601182604051610ded9190612c51565b90815260405160209181900382018120805460ff1916931515939093179092558482527f6f88ec739598ca235e2b8aeaa73f9a2440e219568411adf21649ffd0f0c2c01f910160405180910390a1505050565b60006064610e4f83600a612e57565b610e599190612e37565b92915050565b610e746810dbdb5c1bdb995b9d60ba1b611cfe565b6001600160a01b0316336001600160a01b031614610ea45760405162461bcd60e51b81526004016109ed90612d8f565b6109fe565b610eba64517565727960d81b611cfe565b6001600160a01b0316336001600160a01b031614610f1a5760405162461bcd60e51b815260206004820152601b60248201527f4552524f523a5052442d3030333a4143434553535f44454e494544000000000060448201526064016109ed565b6000610f2584611e72565b90506000816040015190506000610f3f83606001516114eb565b90506000610f4c87611f5d565b600001519050601182604051610f629190612c51565b9081526040519081900360200190205460ff16610fc15760405162461bcd60e51b815260206004820152601f60248201527f4552524f523a4e4542554c412d3030363a455850495245445f504f4c4943590060448201526064016109ed565b6000610fcf8688018861275b565b50505050505050505050565b610ff06810dbdb5c1bdb995b9d60ba1b611cfe565b6001600160a01b0316336001600160a01b0316146110205760405162461bcd60e51b81526004016109ed90612d8f565b6109fe61201d565b6000808080600e5485106110905760405162461bcd60e51b815260206004820152602960248201527f4552524f523a4e4542554c412d3030313a4150504c49434154494f4e5f49445f604482015268125390d3d4949150d560ba1b60648201526084016109ed565b601085815481106110b157634e487b7160e01b600052603260045260246000fd5b6000918252602090912060049091020154601080546001600160a01b0390921691879081106110f057634e487b7160e01b600052603260045260246000fd5b906000526020600020906004020160010160009054906101000a90046001600160a01b03166010878154811061113657634e487b7160e01b600052603260045260246000fd5b9060005260206000209060040201600201546010888154811061116957634e487b7160e01b600052603260045260246000fd5b90600052602060002090600402016003015493509350935093509193509193565b611192611e18565b6109fe6000612047565b6000610e5982612097565b60006111b282611e72565b604081015190915060006111c582612116565b905060006111d285611f5d565b60208101519091506001600160a01b031633146112315760405162461bcd60e51b815260206004820152601c60248201527f4552524f523a4e4542554c412d3030373a4e4f545f4e4f4d494e45450000000060448201526064016109ed565b811561132f576040805160008082526020820190925290611253878584612124565b90506112608782866121b3565b60408051888152602081018390529081018590527f7636d4691c9357a4852f7a6e1625c8fcf31daf03ef65acad57821dcdc5b49adb9060600160405180910390a160006112af88838786612224565b600f549091506112cb90899083906001600160a01b03166122b6565b50506040805189815260208101849052908101829052606081018690527fa181e05e1e565054951c43ea5c260285acca16f2a88dfca73e0a7adad022d31f9060800160405180910390a161131e88611f2c565b61132788612352565b505050611363565b6040518281527f511b5e8c686c58d46128e014f66ef13523e7940970c467ca2fbf37030a7e07a69060200160405180910390a15b5050505050565b600080610af1565b6010818154811061138257600080fd5b600091825260209091206004909102018054600182015460028301546003909301546001600160a01b0392831694509116919084565b6113cd6810dbdb5c1bdb995b9d60ba1b611cfe565b6001600160a01b0316336001600160a01b0316146113fd5760405162461bcd60e51b81526004016109ed90612d8f565b6109fe612383565b61141a6810dbdb5c1bdb995b9d60ba1b611cfe565b6001600160a01b0316336001600160a01b03161461144a5760405162461bcd60e51b81526004016109ed90612d8f565b600255565b600e5460009082106114b85760405162461bcd60e51b815260206004820152602c60248201527f4552524f523a4e4542554c412d3030323a4150504c49434154494f4e5f494e4460448201526b45585f544f4f5f4c4152474560a01b60648201526084016109ed565b600e82815481106114d957634e487b7160e01b600052603260045260246000fd5b90600052602060002001549050919050565b606081806020019051810190610e59919061286c565b611509611e18565b600a81111561156c5760405162461bcd60e51b815260206004820152602960248201527f4552524f523a4e4542554c413a204d415820414c4c4f57454420494e4352454d6044820152680454e542049532031360bc1b60648201526084016109ed565b80600c5461157a9190612e1f565b600c5550565b60006001610af1565b6000806000611597856123ad565b604080518981526020810184905290810182905292955090935091507fbc64ec57a08667ad8fd050a3f074aafb36ef62ed6f7e6612d73697736ad1e4449060600160405180910390a19250925092565b60008082116116435760405162461bcd60e51b815260206004820152602260248201527f4552524f523a4e4542554c412d3030333a4f424a4543545f56414c55455f5a45604482015261524f60f01b60648201526084016109ed565b6011876040516116539190612c51565b9081526040519081900360200190205460ff16156116c15760405162461bcd60e51b815260206004820152602560248201527f4552524f523a4e4542554c412d3030343a4143544956455f504f4c4943595f45604482015264584953545360d81b60648201526084016109ed565b601286101580156116d35750603c8611155b61172b5760405162461bcd60e51b815260206004820152602360248201527f4552524f523a4e4542554c412d3030353a4f5554534944455f4147455f4c494d60448201526249545360e81b60648201526084016109ed565b600d5482111561179a5760405162461bcd60e51b815260206004820152603460248201527f4552524f523a4e4542554c412d3030363a4f424a4543545f56414c55455f544f6044820152734f5f4c415247453a204d4158203130205553444360601b60648201526084016109ed565b600c54600e54106117ed5760405162461bcd60e51b815260206004820152601f60248201527f4552524f523a204d415820504f4c49435920434f554e5420524541434845440060448201526064016109ed565b60006117f883610e40565b604080516001600160a01b0388166020820152919250600091016040516020818303038152906040529050600061182e8a611cb8565b905061183e3388858886866123fb565b935082306001600160a01b03166321df0da76040518163ffffffff1660e01b815260040160206040518083038186803b15801561187a57600080fd5b505afa15801561188e573d6000803e3d6000fd5b505050506040513d601f19601f820116820180604052508101906118b291906126f1565b6001600160a01b031663dd62ed3e33600b60009054906101000a90046001600160a01b03166001600160a01b031663e00246046040518163ffffffff1660e01b815260040160206040518083038186803b15801561190f57600080fd5b505afa158015611923573d6000803e3d6000fd5b505050506040513d601f19601f8201168201806040525081019061194791906126f1565b6040516001600160e01b031960e085901b1681526001600160a01b0392831660048201529116602482015260440160206040518083038186803b15801561198d57600080fd5b505afa1580156119a1573d6000803e3d6000fd5b505050506040513d601f19601f820116820180604052508101906119c5919061279b565b1015611a2d5760405162461bcd60e51b815260206004820152603160248201527f4552524f523a4e4542554c412d5052454d49554d2d3030373a5052454d49554d60448201527017d05353d5539517d25390d3d4949150d5607a1b60648201526084016109ed565b6000611a3885612097565b600e805460018181019092557fbb7b4a454dc3493923482f07822329ed19e8244eff582cc204f8554c3620c3fd01879055604080516080810182523381526001600160a01b038c8116602083019081529282018b8152606083018a8152601080549687018155600052925160049095027f1b6847dc741a1b0cd08d278845f9d819d87b734759afb55fe2de5cb82a9ae672810180549684166001600160a01b031997881617905593517f1b6847dc741a1b0cd08d278845f9d819d87b734759afb55fe2de5cb82a9ae6738501805491909316951694909417905591517f1b6847dc741a1b0cd08d278845f9d819d87b734759afb55fe2de5cb82a9ae67482015590517f1b6847dc741a1b0cd08d278845f9d819d87b734759afb55fe2de5cb82a9ae6759091015590508015611bf357600160118c604051611b799190612c51565b9081526040805160209281900383018120805460ff19169415159490941790935587835233918301919091526001600160a01b038a169082015260608101879052608081018590527f420be8915160506c08c7068e0ff356003c107d194797fddf42bf6e76cc24f1949060a00160405180910390a1611c34565b604080518681523360208201529081018590527f133b8a8231439d43a69b24269690d4611eb89ccf05497db97687c42bebbe525f9060600160405180910390a15b505050509695505050505050565b611c4a611e18565b6001600160a01b038116611caf5760405162461bcd60e51b815260206004820152602660248201527f4f776e61626c653a206e6577206f776e657220697320746865207a65726f206160448201526564647265737360d01b60648201526084016109ed565b61090381612047565b606081604051602001611ccb9190612c51565b60408051601f1981840301815290829052611ce891602001612d14565b6040516020818303038152906040529050919050565b600354604051631c2d8fb360e31b81526004810183905260009161010090046001600160a01b03169063e16c7d989060240160206040518083038186803b158015611d4857600080fd5b505afa158015611d5c573d6000803e3d6000fd5b505050506040513d601f19601f82011682018060405250810190610e5991906126f1565b7fb79d34516b55d664b61192aa41fbc0625b132fb7129bd3b3a31f46d1befa7061611daa60025490565b60405190815260200160405180910390a1565b600a54604051638cc7d3d160e01b8152600481018390526001600160a01b0390911690638cc7d3d1906024015b600060405180830381600087803b158015611e0457600080fd5b505af1158015611363573d6000803e3d6000fd5b6000546001600160a01b031633146109fe5760405162461bcd60e51b815260206004820181905260248201527f4f776e61626c653a2063616c6c6572206973206e6f7420746865206f776e657260448201526064016109ed565b611eac6040805160c08101909152806000815260200160008152602001600081526020016060815260200160008152602001600081525090565b600b54604051632f141bd960e21b8152600481018490526001600160a01b039091169063bc506f649060240160006040518083038186803b158015611ef057600080fd5b505afa158015611f04573d6000803e3d6000fd5b505050506040513d6000823e601f3d908101601f19168201604052610e599190810190612995565b600a546040516318c882f360e31b8152600481018390526001600160a01b039091169063c644179890602401611dea565b611f9d6040805160e08101825260008082526020820181905291810182905290606082019081526020016060815260200160008152602001600081525090565b600b5460405163296586d360e21b8152600481018490526001600160a01b039091169063a5961b4c9060240160006040518083038186803b158015611fe157600080fd5b505afa158015611ff5573d6000803e3d6000fd5b505050506040513d6000823e601f3d908101601f19168201604052610e599190810190612a43565b7fcff3b7b8b07d4d8f74bf41f05737717140d5916781b9dff86ea0b996f2fdb9f9611daa60025490565b600080546001600160a01b038381166001600160a01b0319831681178455604051919092169283917f8be0079c531659141344cd1fd0a4f28419497f9722a3daafe3b4186f6b6457e09190a35050565b600a54604051631b07b17f60e01b8152600481018390526000916001600160a01b031690631b07b17f90602401602060405180830381600087803b1580156120de57600080fd5b505af11580156120f2573d6000803e3d6000fd5b505050506040513d601f19601f82011682018060405250810190610e59919061270d565b60006064610e4f8382612e57565b600a5460405163fae43d1560e01b81526000916001600160a01b03169063fae43d159061215990879087908790600401612cc6565b602060405180830381600087803b15801561217357600080fd5b505af1158015612187573d6000803e3d6000fd5b505050506040513d601f19601f820116820180604052508101906121ab919061279b565b949350505050565b600a54604051634e02c63f60e01b81526004810185905260248101849052604481018390526001600160a01b0390911690634e02c63f90606401600060405180830381600087803b15801561220757600080fd5b505af115801561221b573d6000803e3d6000fd5b50505050505050565b600a54604051633c0ebc2360e11b81526000916001600160a01b03169063781d78469061225b908890889088908890600401612ce5565b602060405180830381600087803b15801561227557600080fd5b505af1158015612289573d6000803e3d6000fd5b505050506040513d601f19601f820116820180604052508101906122ad919061279b565b95945050505050565b600a54604051631ea84f2160e11b815260048101859052602481018490526001600160a01b0383811660448301526000928392911690633d509e42906064016040805180830381600087803b15801561230e57600080fd5b505af1158015612322573d6000803e3d6000fd5b505050506040513d601f19601f820116820180604052508101906123469190612c02565b90969095509350505050565b600a54604051630e71e78360e21b8152600481018390526001600160a01b03909116906339c79e0c90602401611dea565b7f38954b1d025d5a8ffcf9b42d431be2745cdcd05d32b0e5ad33ee2db025ef5b55611daa60025490565b6000806000806123bc85612493565b90508060200151816040015110156123f3576123eb85826040015183602001516123e69190612e76565b612560565b919550935091505b509193909250565b600a54604051637395a56360e01b81526000916001600160a01b031690637395a56390612436908a908a908a908a908a908a90600401612c6d565b602060405180830381600087803b15801561245057600080fd5b505af1158015612464573d6000803e3d6000fd5b505050506040513d601f19601f82011682018060405250810190612488919061279b565b979650505050505050565b6124e3604080516101208101909152806000815260200160008152602001600081526020016000815260200160008152602001600081526020016000815260200160008152602001600081525090565b600b5460405163a3f685f960e01b8152600481018490526001600160a01b039091169063a3f685f9906024016101206040518083038186803b15801561252857600080fd5b505afa15801561253c573d6000803e3d6000fd5b505050506040513d601f19601f82011682018060405250810190610e599190612b02565b600a5460405163e3ebdea560e01b81526004810184905260248101839052600091829182916001600160a01b03169063e3ebdea590604401606060405180830381600087803b1580156125b257600080fd5b505af11580156125c6573d6000803e3d6000fd5b505050506040513d601f19601f820116820180604052508101906125ea9190612727565b919790965090945092505050565b600061260b61260684612df7565b612dc6565b905082815283838301111561261f57600080fd5b828260208301376000602084830101529392505050565b600061264461260684612df7565b905082815283838301111561265857600080fd5b612666836020830184612e8d565b9392505050565b8051610b2b81612eff565b80518015158114610b2b57600080fd5b600082601f830112612698578081fd5b61266683835160208501612636565b805160038110610b2b57600080fd5b600082601f8301126126c6578081fd5b612666838335602085016125f8565b6000602082840312156126e6578081fd5b813561266681612eff565b600060208284031215612702578081fd5b815161266681612eff565b60006020828403121561271e578081fd5b61266682612678565b60008060006060848603121561273b578182fd5b61274484612678565b925060208401519150604084015190509250925092565b60006020828403121561276c578081fd5b81356001600160f81b031981168114612666578182fd5b600060208284031215612794578081fd5b5035919050565b6000602082840312156127ac578081fd5b5051919050565b600080604083850312156127c5578182fd5b50508035926020909101359150565b6000602082840312156127e5578081fd5b813567ffffffffffffffff8111156127fb578182fd5b8201601f8101841361280b578182fd5b6121ab848235602084016125f8565b60006020828403121561282b578081fd5b815160078110612666578182fd5b60006020828403121561284a578081fd5b813567ffffffffffffffff811115612860578182fd5b6121ab848285016126b6565b60006020828403121561287d578081fd5b815167ffffffffffffffff811115612893578182fd5b8201601f810184136128a3578182fd5b6121ab84825160208401612636565b60008060008060008060c087890312156128ca578384fd5b863567ffffffffffffffff808211156128e1578586fd5b6128ed8a838b016126b6565b975060208901359650604089013595506060890135915061290d82612eff565b90935060808801359080821115612922578384fd5b5061292f89828a016126b6565b92505060a087013590509295509295509295565b60008060008060808587031215612958578182fd5b843567ffffffffffffffff81111561296e578283fd5b61297a878288016126b6565b97602087013597506040870135966060013595509350505050565b6000602082840312156129a6578081fd5b815167ffffffffffffffff808211156129bd578283fd5b9083019060c082860312156129d0578283fd5b6129da60c0612dc6565b8251600481106129e8578485fd5b808252506020830151602082015260408301516040820152606083015182811115612a11578485fd5b612a1d87828601612688565b6060830152506080830151608082015260a083015160a082015280935050505092915050565b600060208284031215612a54578081fd5b815167ffffffffffffffff80821115612a6b578283fd5b9083019060e08286031215612a7e578283fd5b612a8860e0612dc6565b612a918361266d565b8152612a9f6020840161266d565b602082015260408301516040820152612aba606084016126a7565b6060820152608083015182811115612ad0578485fd5b612adc87828601612688565b60808301525060a083015160a082015260c083015160c082015280935050505092915050565b6000610120808385031215612b15578182fd5b612b1e81612dc6565b9050612b29836126a7565b81526020830151602082015260408301516040820152606083015160608201526080830151608082015260a083015160a082015260c083015160c082015260e083015160e08201526101008084015181830152508091505092915050565b60008060008060608587031215612b9c578182fd5b8435935060208501359250604085013567ffffffffffffffff80821115612bc1578384fd5b818701915087601f830112612bd4578384fd5b813581811115612be2578485fd5b886020828501011115612bf3578485fd5b95989497505060200194505050565b60008060408385031215612c14578182fd5b505080516020909101519092909150565b60008151808452612c3d816020860160208601612e8d565b601f01601f19169290920160200192915050565b60008251612c63818460208701612e8d565b9190910192915050565b6001600160a01b03878116825286166020820152604081018590526060810184905260c060808201819052600090612ca790830185612c25565b82810360a0840152612cb98185612c25565b9998505050505050505050565b6000848252836020830152606060408301526122ad6060830184612c25565b600085825284602083015283604083015260806060830152612d0a6080830184612c25565b9695505050505050565b6000602082526126666020830184612c25565b6020810160078310612d3b57612d3b612ed3565b91905290565b6020810160038310612d3b57612d3b612ed3565b600060a08252612d6860a0830188612c25565b905085602083015284604083015283606083015260ff831660808301529695505050505050565b6020808252601b908201527f4552524f523a434d502d3030323a4e4f545f434f4d504f4e454e540000000000604082015260600190565b604051601f8201601f1916810167ffffffffffffffff81118282101715612def57612def612ee9565b604052919050565b600067ffffffffffffffff821115612e1157612e11612ee9565b50601f01601f191660200190565b60008219821115612e3257612e32612ebd565b500190565b600082612e5257634e487b7160e01b81526012600452602481fd5b500490565b6000816000190483118215151615612e7157612e71612ebd565b500290565b600082821015612e8857612e88612ebd565b500390565b60005b83811015612ea8578181015183820152602001612e90565b83811115612eb7576000848401525b50505050565b634e487b7160e01b600052601160045260246000fd5b634e487b7160e01b600052602160045260246000fd5b634e487b7160e01b600052604160045260246000fd5b6001600160a01b038116811461090357600080fdfea2646970667358221220298e180be555f81a3761681716d0168924a7df859c10580d47393962bd12eff164736f6c634300080200336080604052600080546001600160a01b0319167345360d0c789abac5b8c72b1558f5436e4c034e0517905534801561003657600080fd5b50610960806100466000396000f3fe6080604052600436106100915760003560e01c80638da5cb5b116100595780638da5cb5b1461015f578063afe15cfb14610197578063c13517e1146101cf578063f23f16e6146101e2578063f7434ea91461020257610091565b806310f169e8146100965780631c3db16d146100cc578063311a6c56146100fa57806349912f881461011c578063564a565d1461012f575b600080fd5b3480156100a257600080fd5b506100b66100b13660046107ef565b610228565b6040516100c391906108c3565b60405180910390f35b3480156100d857600080fd5b506100ec6100e73660046107ef565b610268565b6040519081526020016100c3565b34801561010657600080fd5b5061011a61011536600461084c565b6102a4565b005b61011a61012a366004610807565b610493565b34801561013b57600080fd5b5061014f61014a3660046107ef565b61050a565b6040516100c3949392919061088f565b34801561016b57600080fd5b5060005461017f906001600160a01b031681565b6040516001600160a01b0390911681526020016100c3565b3480156101a357600080fd5b506101ba6101b23660046107ef565b600080915091565b604080519283526020830191909152016100c3565b6100ec6101dd366004610807565b610551565b3480156101ee57600080fd5b506100ec6101fd366004610807565b610721565b34801561020e57600080fd5b506100ec61021d3660046107b4565b506509184e72a00090565b60006001828154811061024b57634e487b7160e01b600052603260045260246000fd5b600091825260209091206003600490920201015460ff1692915050565b60006001828154811061028b57634e487b7160e01b600052603260045260246000fd5b9060005260206000209060040201600201549050919050565b6000546001600160a01b031633146103065760405162461bcd60e51b815260206004820152602c602482015260008051602061090b83398151915260448201526b18191d2727aa2fa7aba722a960a11b60648201526084015b60405180910390fd5b60006001838154811061032957634e487b7160e01b600052603260045260246000fd5b9060005260206000209060040201905080600101548211156103955760405162461bcd60e51b8152602060048201526031602482015260008051602061090b83398151915260448201527030333a494e56414c49445f52554c494e4760781b60648201526084016102fd565b6000600382015460ff1660028111156103be57634e487b7160e01b600052602160045260246000fd5b146104135760405162461bcd60e51b8152602060048201526031602482015260008051602061090b83398151915260448201527030343a494e56414c49445f53544154555360781b60648201526084016102fd565b600281810183905560038201805460ff19169091179055805460405163188d362b60e11b815260048101859052602481018490526001600160a01b039091169063311a6c5690604401600060405180830381600087803b15801561047657600080fd5b505af115801561048a573d6000803e3d6000fd5b50505050505050565b600061049f8383610721565b9050803410156105055760405162461bcd60e51b8152602060048201526037602482015260008051602061090b83398151915260448201527f30353a494e5355464649454349454e545f414d4f554e5400000000000000000060648201526084016102fd565b505050565b6001818154811061051a57600080fd5b600091825260209091206004909102018054600182015460028301546003909301546001600160a01b039092169350919060ff1684565b60006509184e72a000348111156105be5760405162461bcd60e51b8152602060048201526038602482015260008051602061090b83398151915260448201527f30313a494e5355464649454349454e545f5041594d454e54000000000000000060648201526084016102fd565b604080516080810182523381526020810186815260009282018381526060830184815260018054808201825595819052845160049096027fb10e2d527612073b26eecdfd717e6a320cf44b4afac2b0732d9fcbe2b7fa0cf6810180546001600160a01b039098166001600160a01b031990981697909717875593517fb10e2d527612073b26eecdfd717e6a320cf44b4afac2b0732d9fcbe2b7fa0cf785015591517fb10e2d527612073b26eecdfd717e6a320cf44b4afac2b0732d9fcbe2b7fa0cf8840155517fb10e2d527612073b26eecdfd717e6a320cf44b4afac2b0732d9fcbe2b7fa0cf99092018054939493909160ff19909116908360028111156106d657634e487b7160e01b600052602160045260246000fd5b021790555050600180546106ea92506108d1565b604051909250339083907f141dfc18aa6a56fc816f44f0e9e2f1ebc92b15ab167770e17db5b084c10ed99590600090a35092915050565b600160fa1b5b92915050565b600082601f83011261073d578081fd5b813567ffffffffffffffff80821115610758576107586108f4565b604051601f8301601f19908116603f01168101908282118183101715610780576107806108f4565b81604052838152866020858801011115610798578485fd5b8360208701602083013792830160200193909352509392505050565b6000602082840312156107c5578081fd5b813567ffffffffffffffff8111156107db578182fd5b6107e78482850161072d565b949350505050565b600060208284031215610800578081fd5b5035919050565b60008060408385031215610819578081fd5b82359150602083013567ffffffffffffffff811115610836578182fd5b6108428582860161072d565b9150509250929050565b6000806040838503121561085e578182fd5b50508035926020909101359150565b6003811061088b57634e487b7160e01b600052602160045260246000fd5b9052565b6001600160a01b03851681526020810184905260408101839052608081016108ba606083018461086d565b95945050505050565b60208101610727828461086d565b6000828210156108ef57634e487b7160e01b81526011600452602481fd5b500390565b634e487b7160e01b600052604160045260246000fdfe4552524f523a4e4542554c413a4b4c45524f533a41524249545241544f523a30a2646970667358221220688a577f91872fc92306bd06dbefd1d3fc0d0e7bb3e79d56e5167756a5bd9b4364736f6c63430008020033",
    "bytecodeSha1": "d88264173008610ec3ebcfe861bbf5d2bd351c32",
    "compiler": {
        "evm_version": "istanbul",
        "optimizer": {
            "enabled": true,
            "runs": 200
        },
        "version": "0.8.2+commit.661d1103"
    },
    "contractName": "NebulaProduct",
    "language": "Solidity",
    "natspec": {
        "kind": "dev",
        "methods": {
            "owner()": {
                "details": "Returns the address of the current owner."
            },
            "renounceOwnership()": {
                "details": "Leaves the contract without owner. It will not be possible to call `onlyOwner` functions anymore. Can only be called by the current owner. NOTE: Renouncing ownership will leave the contract without an owner, thereby removing any functionality that is only available to the owner."
            },
            "transferOwnership(address)": {
                "details": "Transfers ownership of the contract to a new account (`newOwner`). Can only be called by the current owner."
            }
        },
        "version": 1
    },
    "opcodes": "PUSH1 0x80 PUSH1 0x40 MSTORE PUSH1 0x4 CALLDATASIZE LT PUSH2 0x31E JUMPI PUSH1 0x0 CALLDATALOAD PUSH1 0xE0 SHR DUP1 PUSH4 0x70D2FE53 GT PUSH2 0x1AB JUMPI DUP1 PUSH4 0xBE169E7E GT PUSH2 0xF7 JUMPI DUP1 PUSH4 0xE3EBDEA5 GT PUSH2 0x95 JUMPI DUP1 PUSH4 0xF38B3B83 GT PUSH2 0x6F JUMPI DUP1 PUSH4 0xF38B3B83 EQ PUSH2 0x8B2 JUMPI DUP1 PUSH4 0xF41D2480 EQ PUSH2 0x8D2 JUMPI DUP1 PUSH4 0xF4FDC1FA EQ PUSH2 0x8E8 JUMPI DUP1 PUSH4 0xFFA1AD74 EQ PUSH2 0x906 JUMPI PUSH2 0x325 JUMP JUMPDEST DUP1 PUSH4 0xE3EBDEA5 EQ PUSH2 0x835 JUMPI DUP1 PUSH4 0xE889C230 EQ PUSH2 0x872 JUMPI DUP1 PUSH4 0xF2FDE38B EQ PUSH2 0x892 JUMPI PUSH2 0x325 JUMP JUMPDEST DUP1 PUSH4 0xD5DE4252 GT PUSH2 0xD1 JUMPI DUP1 PUSH4 0xD5DE4252 EQ PUSH2 0x7E0 JUMPI DUP1 PUSH4 0xD651B7B8 EQ PUSH2 0x800 JUMPI DUP1 PUSH4 0xD73CD992 EQ PUSH2 0x576 JUMPI DUP1 PUSH4 0xE0815F0D EQ PUSH2 0x820 JUMPI PUSH2 0x325 JUMP JUMPDEST DUP1 PUSH4 0xBE169E7E EQ PUSH2 0x576 JUMPI DUP1 PUSH4 0xD0E0BA95 EQ PUSH2 0x7A0 JUMPI DUP1 PUSH4 0xD52D2D06 EQ PUSH2 0x7C0 JUMPI PUSH2 0x325 JUMP JUMPDEST DUP1 PUSH4 0x94F64FF4 GT PUSH2 0x164 JUMPI DUP1 PUSH4 0x9AEC65CE GT PUSH2 0x13E JUMPI DUP1 PUSH4 0x9AEC65CE EQ PUSH2 0x76B JUMPI DUP1 PUSH4 0xA18F5AE2 EQ PUSH2 0x576 JUMPI DUP1 PUSH4 0xB3FCA9BD EQ PUSH2 0x576 JUMPI DUP1 PUSH4 0xBD1FE5D0 EQ PUSH2 0x78B JUMPI PUSH2 0x325 JUMP JUMPDEST DUP1 PUSH4 0x94F64FF4 EQ PUSH2 0x4CC JUMPI DUP1 PUSH4 0x95BB88DB EQ PUSH2 0x741 JUMPI DUP1 PUSH4 0x9A82F890 EQ PUSH2 0x756 JUMPI PUSH2 0x325 JUMP JUMPDEST DUP1 PUSH4 0x70D2FE53 EQ PUSH2 0x697 JUMPI DUP1 PUSH4 0x715018A6 EQ PUSH2 0x6AC JUMPI DUP1 PUSH4 0x7B17A8E2 EQ PUSH2 0x6C1 JUMPI DUP1 PUSH4 0x83F07D25 EQ PUSH2 0x6E1 JUMPI DUP1 PUSH4 0x893D20E8 EQ PUSH2 0x701 JUMPI DUP1 PUSH4 0x8DA5CB5B EQ PUSH2 0x723 JUMPI PUSH2 0x325 JUMP JUMPDEST DUP1 PUSH4 0x3D93AB71 GT PUSH2 0x26A JUMPI DUP1 PUSH4 0x5D1CA631 GT PUSH2 0x223 JUMPI DUP1 PUSH4 0x638CE0BA GT PUSH2 0x1FD JUMPI DUP1 PUSH4 0x638CE0BA EQ PUSH2 0x602 JUMPI DUP1 PUSH4 0x64034737 EQ PUSH2 0x617 JUMPI DUP1 PUSH4 0x6B2996A0 EQ PUSH2 0x662 JUMPI DUP1 PUSH4 0x6CC6CDE1 EQ PUSH2 0x677 JUMPI PUSH2 0x325 JUMP JUMPDEST DUP1 PUSH4 0x5D1CA631 EQ PUSH2 0x5AF JUMPI DUP1 PUSH4 0x5E61AA63 EQ PUSH2 0x5C4 JUMPI DUP1 PUSH4 0x637D08F4 EQ PUSH2 0x5E4 JUMPI PUSH2 0x325 JUMP JUMPDEST DUP1 PUSH4 0x3D93AB71 EQ PUSH2 0x516 JUMPI DUP1 PUSH4 0x3EC92BDA EQ PUSH2 0x4CC JUMPI DUP1 PUSH4 0x47E3B138 EQ PUSH2 0x536 JUMPI DUP1 PUSH4 0x48F54F03 EQ PUSH2 0x556 JUMPI DUP1 PUSH4 0x59DACC6A EQ PUSH2 0x576 JUMPI DUP1 PUSH4 0x5AB1BD53 EQ PUSH2 0x58B JUMPI PUSH2 0x325 JUMP JUMPDEST DUP1 PUSH4 0x1B867C63 GT PUSH2 0x2D7 JUMPI DUP1 PUSH4 0x258D560C GT PUSH2 0x2B1 JUMPI DUP1 PUSH4 0x258D560C EQ PUSH2 0x497 JUMPI DUP1 PUSH4 0x296D6C7D EQ PUSH2 0x4AC JUMPI DUP1 PUSH4 0x39CF5E16 EQ PUSH2 0x4CC JUMPI DUP1 PUSH4 0x3AEFC5FC EQ PUSH2 0x4F6 JUMPI PUSH2 0x325 JUMP JUMPDEST DUP1 PUSH4 0x1B867C63 EQ PUSH2 0x41D JUMPI DUP1 PUSH4 0x1D6524FE EQ PUSH2 0x434 JUMPI DUP1 PUSH4 0x21DF0DA7 EQ PUSH2 0x465 JUMPI PUSH2 0x325 JUMP JUMPDEST DUP1 PUSH4 0x9128D83 EQ PUSH2 0x32A JUMPI DUP1 PUSH4 0xAFEB6F0 EQ PUSH2 0x365 JUMPI DUP1 PUSH4 0x15DAE03E EQ PUSH2 0x3B0 JUMPI DUP1 PUSH4 0x17D7DE7C EQ PUSH2 0x3D0 JUMPI DUP1 PUSH4 0x1865C57D EQ PUSH2 0x3E5 JUMPI DUP1 PUSH4 0x1A41F66E EQ PUSH2 0x407 JUMPI PUSH2 0x325 JUMP JUMPDEST CALLDATASIZE PUSH2 0x325 JUMPI STOP JUMPDEST PUSH1 0x0 DUP1 REVERT JUMPDEST CALLVALUE DUP1 ISZERO PUSH2 0x336 JUMPI PUSH1 0x0 DUP1 REVERT JUMPDEST POP PUSH2 0x352 PUSH17 0x506F6C69637944656661756C74466C6F77 PUSH1 0x78 SHL DUP2 JUMP JUMPDEST PUSH1 0x40 MLOAD SWAP1 DUP2 MSTORE PUSH1 0x20 ADD JUMPDEST PUSH1 0x40 MLOAD DUP1 SWAP2 SUB SWAP1 RETURN JUMPDEST CALLVALUE DUP1 ISZERO PUSH2 0x371 JUMPI PUSH1 0x0 DUP1 REVERT JUMPDEST POP PUSH2 0x3A0 PUSH2 0x380 CALLDATASIZE PUSH1 0x4 PUSH2 0x2839 JUMP JUMPDEST DUP1 MLOAD PUSH1 0x20 DUP2 DUP4 ADD DUP2 ADD DUP1 MLOAD PUSH1 0x11 DUP3 MSTORE SWAP3 DUP3 ADD SWAP2 SWAP1 SWAP4 ADD KECCAK256 SWAP2 MSTORE SLOAD PUSH1 0xFF AND DUP2 JUMP JUMPDEST PUSH1 0x40 MLOAD SWAP1 ISZERO ISZERO DUP2 MSTORE PUSH1 0x20 ADD PUSH2 0x35C JUMP JUMPDEST CALLVALUE DUP1 ISZERO PUSH2 0x3BC JUMPI PUSH1 0x0 DUP1 REVERT JUMPDEST POP PUSH1 0x3 SLOAD PUSH1 0xFF AND PUSH1 0x40 MLOAD PUSH2 0x35C SWAP2 SWAP1 PUSH2 0x2D41 JUMP JUMPDEST CALLVALUE DUP1 ISZERO PUSH2 0x3DC JUMPI PUSH1 0x0 DUP1 REVERT JUMPDEST POP PUSH1 0x1 SLOAD PUSH2 0x352 JUMP JUMPDEST CALLVALUE DUP1 ISZERO PUSH2 0x3F1 JUMPI PUSH1 0x0 DUP1 REVERT JUMPDEST POP PUSH2 0x3FA PUSH2 0x922 JUMP JUMPDEST PUSH1 0x40 MLOAD PUSH2 0x35C SWAP2 SWAP1 PUSH2 0x2D27 JUMP JUMPDEST CALLVALUE DUP1 ISZERO PUSH2 0x413 JUMPI PUSH1 0x0 DUP1 REVERT JUMPDEST POP PUSH2 0x352 PUSH1 0xC SLOAD DUP2 JUMP JUMPDEST CALLVALUE DUP1 ISZERO PUSH2 0x429 JUMPI PUSH1 0x0 DUP1 REVERT JUMPDEST POP PUSH2 0x432 PUSH2 0x9A8 JUMP JUMPDEST STOP JUMPDEST CALLVALUE DUP1 ISZERO PUSH2 0x440 JUMPI PUSH1 0x0 DUP1 REVERT JUMPDEST POP PUSH2 0x454 PUSH2 0x44F CALLDATASIZE PUSH1 0x4 PUSH2 0x2943 JUMP JUMPDEST PUSH2 0xA00 JUMP JUMPDEST PUSH1 0x40 MLOAD PUSH2 0x35C SWAP6 SWAP5 SWAP4 SWAP3 SWAP2 SWAP1 PUSH2 0x2D55 JUMP JUMPDEST CALLVALUE DUP1 ISZERO PUSH2 0x471 JUMPI PUSH1 0x0 DUP1 REVERT JUMPDEST POP PUSH1 0x8 SLOAD PUSH1 0x1 PUSH1 0x1 PUSH1 0xA0 SHL SUB AND JUMPDEST PUSH1 0x40 MLOAD PUSH1 0x1 PUSH1 0x1 PUSH1 0xA0 SHL SUB SWAP1 SWAP2 AND DUP2 MSTORE PUSH1 0x20 ADD PUSH2 0x35C JUMP JUMPDEST CALLVALUE DUP1 ISZERO PUSH2 0x4A3 JUMPI PUSH1 0x0 DUP1 REVERT JUMPDEST POP PUSH2 0x3A0 PUSH2 0xAEC JUMP JUMPDEST CALLVALUE DUP1 ISZERO PUSH2 0x4B8 JUMPI PUSH1 0x0 DUP1 REVERT JUMPDEST POP PUSH2 0x3A0 PUSH2 0x4C7 CALLDATASIZE PUSH1 0x4 PUSH2 0x2783 JUMP JUMPDEST PUSH2 0xB1C JUMP JUMPDEST CALLVALUE DUP1 ISZERO PUSH2 0x4D8 JUMPI PUSH1 0x0 DUP1 REVERT JUMPDEST POP PUSH1 0x40 DUP1 MLOAD PUSH1 0x20 DUP2 ADD SWAP1 SWAP2 MSTORE PUSH1 0x0 DUP2 MSTORE JUMPDEST PUSH1 0x40 MLOAD PUSH2 0x35C SWAP2 SWAP1 PUSH2 0x2D14 JUMP JUMPDEST CALLVALUE DUP1 ISZERO PUSH2 0x502 JUMPI PUSH1 0x0 DUP1 REVERT JUMPDEST POP PUSH2 0x432 PUSH2 0x511 CALLDATASIZE PUSH1 0x4 PUSH2 0x2783 JUMP JUMPDEST PUSH2 0xB30 JUMP JUMPDEST CALLVALUE DUP1 ISZERO PUSH2 0x522 JUMPI PUSH1 0x0 DUP1 REVERT JUMPDEST POP PUSH2 0x432 PUSH2 0x531 CALLDATASIZE PUSH1 0x4 PUSH2 0x2783 JUMP JUMPDEST PUSH2 0xCB9 JUMP JUMPDEST CALLVALUE DUP1 ISZERO PUSH2 0x542 JUMPI PUSH1 0x0 DUP1 REVERT JUMPDEST POP PUSH2 0x432 PUSH2 0x551 CALLDATASIZE PUSH1 0x4 PUSH2 0x2783 JUMP JUMPDEST PUSH2 0xD3D JUMP JUMPDEST CALLVALUE DUP1 ISZERO PUSH2 0x562 JUMPI PUSH1 0x0 DUP1 REVERT JUMPDEST POP PUSH2 0x352 PUSH2 0x571 CALLDATASIZE PUSH1 0x4 PUSH2 0x2783 JUMP JUMPDEST PUSH2 0xE40 JUMP JUMPDEST CALLVALUE DUP1 ISZERO PUSH2 0x582 JUMPI PUSH1 0x0 DUP1 REVERT JUMPDEST POP PUSH2 0x432 PUSH2 0xE5F JUMP JUMPDEST CALLVALUE DUP1 ISZERO PUSH2 0x597 JUMPI PUSH1 0x0 DUP1 REVERT JUMPDEST POP PUSH2 0x47F PUSH1 0x3 SLOAD PUSH2 0x100 SWAP1 DIV PUSH1 0x1 PUSH1 0x1 PUSH1 0xA0 SHL SUB AND SWAP1 JUMP JUMPDEST CALLVALUE DUP1 ISZERO PUSH2 0x5BB JUMPI PUSH1 0x0 DUP1 REVERT JUMPDEST POP PUSH1 0x2 SLOAD PUSH2 0x352 JUMP JUMPDEST CALLVALUE DUP1 ISZERO PUSH2 0x5D0 JUMPI PUSH1 0x0 DUP1 REVERT JUMPDEST POP PUSH2 0x432 PUSH2 0x5DF CALLDATASIZE PUSH1 0x4 PUSH2 0x2B87 JUMP JUMPDEST PUSH2 0xEA9 JUMP JUMPDEST CALLVALUE DUP1 ISZERO PUSH2 0x5F0 JUMPI PUSH1 0x0 DUP1 REVERT JUMPDEST POP PUSH1 0x7 SLOAD PUSH1 0x1 PUSH1 0x1 PUSH1 0xA0 SHL SUB AND PUSH2 0x47F JUMP JUMPDEST CALLVALUE DUP1 ISZERO PUSH2 0x60E JUMPI PUSH1 0x0 DUP1 REVERT JUMPDEST POP PUSH2 0x432 PUSH2 0xFDB JUMP JUMPDEST CALLVALUE DUP1 ISZERO PUSH2 0x623 JUMPI PUSH1 0x0 DUP1 REVERT JUMPDEST POP PUSH2 0x637 PUSH2 0x632 CALLDATASIZE PUSH1 0x4 PUSH2 0x2783 JUMP JUMPDEST PUSH2 0x1028 JUMP JUMPDEST PUSH1 0x40 DUP1 MLOAD PUSH1 0x1 PUSH1 0x1 PUSH1 0xA0 SHL SUB SWAP6 DUP7 AND DUP2 MSTORE SWAP5 SWAP1 SWAP4 AND PUSH1 0x20 DUP6 ADD MSTORE SWAP2 DUP4 ADD MSTORE PUSH1 0x60 DUP3 ADD MSTORE PUSH1 0x80 ADD PUSH2 0x35C JUMP JUMPDEST CALLVALUE DUP1 ISZERO PUSH2 0x66E JUMPI PUSH1 0x0 DUP1 REVERT JUMPDEST POP PUSH1 0xE SLOAD PUSH2 0x352 JUMP JUMPDEST CALLVALUE DUP1 ISZERO PUSH2 0x683 JUMPI PUSH1 0x0 DUP1 REVERT JUMPDEST POP PUSH1 0xF SLOAD PUSH2 0x47F SWAP1 PUSH1 0x1 PUSH1 0x1 PUSH1 0xA0 SHL SUB AND DUP2 JUMP JUMPDEST CALLVALUE DUP1 ISZERO PUSH2 0x6A3 JUMPI PUSH1 0x0 DUP1 REVERT JUMPDEST POP PUSH1 0x9 SLOAD PUSH2 0x352 JUMP JUMPDEST CALLVALUE DUP1 ISZERO PUSH2 0x6B8 JUMPI PUSH1 0x0 DUP1 REVERT JUMPDEST POP PUSH2 0x432 PUSH2 0x118A JUMP JUMPDEST CALLVALUE DUP1 ISZERO PUSH2 0x6CD JUMPI PUSH1 0x0 DUP1 REVERT JUMPDEST POP PUSH2 0x3A0 PUSH2 0x6DC CALLDATASIZE PUSH1 0x4 PUSH2 0x2783 JUMP JUMPDEST PUSH2 0x119C JUMP JUMPDEST CALLVALUE DUP1 ISZERO PUSH2 0x6ED JUMPI PUSH1 0x0 DUP1 REVERT JUMPDEST POP PUSH2 0x432 PUSH2 0x6FC CALLDATASIZE PUSH1 0x4 PUSH2 0x2783 JUMP JUMPDEST PUSH2 0x11A7 JUMP JUMPDEST CALLVALUE DUP1 ISZERO PUSH2 0x70D JUMPI PUSH1 0x0 DUP1 REVERT JUMPDEST POP PUSH2 0x47F PUSH1 0x0 DUP1 SLOAD PUSH1 0x1 PUSH1 0x1 PUSH1 0xA0 SHL SUB AND PUSH2 0x9A3 JUMP JUMPDEST CALLVALUE DUP1 ISZERO PUSH2 0x72F JUMPI PUSH1 0x0 DUP1 REVERT JUMPDEST POP PUSH1 0x0 SLOAD PUSH1 0x1 PUSH1 0x1 PUSH1 0xA0 SHL SUB AND PUSH2 0x47F JUMP JUMPDEST CALLVALUE DUP1 ISZERO PUSH2 0x74D JUMPI PUSH1 0x0 DUP1 REVERT JUMPDEST POP PUSH2 0x352 PUSH1 0x64 DUP2 JUMP JUMPDEST CALLVALUE DUP1 ISZERO PUSH2 0x762 JUMPI PUSH1 0x0 DUP1 REVERT JUMPDEST POP PUSH2 0x3A0 PUSH2 0x136A JUMP JUMPDEST CALLVALUE DUP1 ISZERO PUSH2 0x777 JUMPI PUSH1 0x0 DUP1 REVERT JUMPDEST POP PUSH2 0x637 PUSH2 0x786 CALLDATASIZE PUSH1 0x4 PUSH2 0x2783 JUMP JUMPDEST PUSH2 0x1372 JUMP JUMPDEST CALLVALUE DUP1 ISZERO PUSH2 0x797 JUMPI PUSH1 0x0 DUP1 REVERT JUMPDEST POP PUSH2 0x432 PUSH2 0x13B8 JUMP JUMPDEST CALLVALUE DUP1 ISZERO PUSH2 0x7AC JUMPI PUSH1 0x0 DUP1 REVERT JUMPDEST POP PUSH2 0x432 PUSH2 0x7BB CALLDATASIZE PUSH1 0x4 PUSH2 0x2783 JUMP JUMPDEST PUSH2 0x1405 JUMP JUMPDEST CALLVALUE DUP1 ISZERO PUSH2 0x7CC JUMPI PUSH1 0x0 DUP1 REVERT JUMPDEST POP PUSH2 0x352 PUSH2 0x7DB CALLDATASIZE PUSH1 0x4 PUSH2 0x2783 JUMP JUMPDEST PUSH2 0x144F JUMP JUMPDEST CALLVALUE DUP1 ISZERO PUSH2 0x7EC JUMPI PUSH1 0x0 DUP1 REVERT JUMPDEST POP PUSH2 0x4E9 PUSH2 0x7FB CALLDATASIZE PUSH1 0x4 PUSH2 0x27D4 JUMP JUMPDEST PUSH2 0x14EB JUMP JUMPDEST CALLVALUE DUP1 ISZERO PUSH2 0x80C JUMPI PUSH1 0x0 DUP1 REVERT JUMPDEST POP PUSH2 0x432 PUSH2 0x81B CALLDATASIZE PUSH1 0x4 PUSH2 0x2783 JUMP JUMPDEST PUSH2 0x1501 JUMP JUMPDEST CALLVALUE DUP1 ISZERO PUSH2 0x82C JUMPI PUSH1 0x0 DUP1 REVERT JUMPDEST POP PUSH2 0x3A0 PUSH2 0x1580 JUMP JUMPDEST CALLVALUE DUP1 ISZERO PUSH2 0x841 JUMPI PUSH1 0x0 DUP1 REVERT JUMPDEST POP PUSH2 0x855 PUSH2 0x850 CALLDATASIZE PUSH1 0x4 PUSH2 0x27B3 JUMP JUMPDEST PUSH2 0x1589 JUMP JUMPDEST PUSH1 0x40 DUP1 MLOAD SWAP4 ISZERO ISZERO DUP5 MSTORE PUSH1 0x20 DUP5 ADD SWAP3 SWAP1 SWAP3 MSTORE SWAP1 DUP3 ADD MSTORE PUSH1 0x60 ADD PUSH2 0x35C JUMP JUMPDEST CALLVALUE DUP1 ISZERO PUSH2 0x87E JUMPI PUSH1 0x0 DUP1 REVERT JUMPDEST POP PUSH2 0x352 PUSH2 0x88D CALLDATASIZE PUSH1 0x4 PUSH2 0x28B2 JUMP JUMPDEST PUSH2 0x15E7 JUMP JUMPDEST CALLVALUE DUP1 ISZERO PUSH2 0x89E JUMPI PUSH1 0x0 DUP1 REVERT JUMPDEST POP PUSH2 0x432 PUSH2 0x8AD CALLDATASIZE PUSH1 0x4 PUSH2 0x26D5 JUMP JUMPDEST PUSH2 0x1C42 JUMP JUMPDEST CALLVALUE DUP1 ISZERO PUSH2 0x8BE JUMPI PUSH1 0x0 DUP1 REVERT JUMPDEST POP PUSH2 0x4E9 PUSH2 0x8CD CALLDATASIZE PUSH1 0x4 PUSH2 0x2839 JUMP JUMPDEST PUSH2 0x1CB8 JUMP JUMPDEST CALLVALUE DUP1 ISZERO PUSH2 0x8DE JUMPI PUSH1 0x0 DUP1 REVERT JUMPDEST POP PUSH2 0x352 PUSH1 0xD SLOAD DUP2 JUMP JUMPDEST CALLVALUE DUP1 ISZERO PUSH2 0x8F4 JUMPI PUSH1 0x0 DUP1 REVERT JUMPDEST POP PUSH2 0x432 PUSH2 0x903 CALLDATASIZE PUSH1 0x4 PUSH2 0x2783 JUMP JUMPDEST POP JUMP JUMPDEST CALLVALUE DUP1 ISZERO PUSH2 0x912 JUMPI PUSH1 0x0 DUP1 REVERT JUMPDEST POP PUSH2 0x352 PUSH5 0x302E302E31 PUSH1 0xD8 SHL DUP2 JUMP JUMPDEST PUSH1 0x6 SLOAD PUSH1 0x2 SLOAD PUSH1 0x40 MLOAD PUSH4 0x5E966E45 PUSH1 0xE0 SHL DUP2 MSTORE PUSH1 0x4 DUP2 ADD SWAP2 SWAP1 SWAP2 MSTORE PUSH1 0x0 SWAP2 PUSH1 0x1 PUSH1 0x1 PUSH1 0xA0 SHL SUB AND SWAP1 PUSH4 0x5E966E45 SWAP1 PUSH1 0x24 ADD PUSH1 0x20 PUSH1 0x40 MLOAD DUP1 DUP4 SUB DUP2 DUP7 DUP1 EXTCODESIZE ISZERO DUP1 ISZERO PUSH2 0x96B JUMPI PUSH1 0x0 DUP1 REVERT JUMPDEST POP GAS STATICCALL ISZERO DUP1 ISZERO PUSH2 0x97F JUMPI RETURNDATASIZE PUSH1 0x0 DUP1 RETURNDATACOPY RETURNDATASIZE PUSH1 0x0 REVERT JUMPDEST POP POP POP POP PUSH1 0x40 MLOAD RETURNDATASIZE PUSH1 0x1F NOT PUSH1 0x1F DUP3 ADD AND DUP3 ADD DUP1 PUSH1 0x40 MSTORE POP DUP2 ADD SWAP1 PUSH2 0x9A3 SWAP2 SWAP1 PUSH2 0x281A JUMP JUMPDEST SWAP1 POP SWAP1 JUMP JUMPDEST PUSH2 0x9BD PUSH9 0x10DBDB5C1BDB995B9D PUSH1 0xBA SHL PUSH2 0x1CFE JUMP JUMPDEST PUSH1 0x1 PUSH1 0x1 PUSH1 0xA0 SHL SUB AND CALLER PUSH1 0x1 PUSH1 0x1 PUSH1 0xA0 SHL SUB AND EQ PUSH2 0x9F6 JUMPI PUSH1 0x40 MLOAD PUSH3 0x461BCD PUSH1 0xE5 SHL DUP2 MSTORE PUSH1 0x4 ADD PUSH2 0x9ED SWAP1 PUSH2 0x2D8F JUMP JUMPDEST PUSH1 0x40 MLOAD DUP1 SWAP2 SUB SWAP1 REVERT JUMPDEST PUSH2 0x9FE PUSH2 0x1D80 JUMP JUMPDEST JUMP JUMPDEST PUSH1 0x60 PUSH1 0x0 DUP1 DUP1 DUP1 DUP6 ISZERO DUP1 PUSH2 0xA18 JUMPI POP PUSH4 0x3B9ACA00 DUP7 LT ISZERO JUMPDEST ISZERO PUSH2 0xA31 JUMPI POP DUP8 SWAP4 POP DUP7 SWAP3 POP DUP6 SWAP2 POP DUP5 SWAP1 POP PUSH1 0x0 PUSH2 0xAE1 JUMP JUMPDEST PUSH1 0x11 DUP10 PUSH1 0x40 MLOAD PUSH2 0xA41 SWAP2 SWAP1 PUSH2 0x2C51 JUMP JUMPDEST SWAP1 DUP2 MSTORE PUSH1 0x40 MLOAD SWAP1 DUP2 SWAP1 SUB PUSH1 0x20 ADD SWAP1 KECCAK256 SLOAD PUSH1 0xFF AND ISZERO PUSH2 0xA6D JUMPI POP DUP8 SWAP4 POP DUP7 SWAP3 POP DUP6 SWAP2 POP DUP5 SWAP1 POP PUSH1 0x0 PUSH2 0xAE1 JUMP JUMPDEST PUSH1 0x11 DUP10 PUSH1 0x40 MLOAD PUSH2 0xA7D SWAP2 SWAP1 PUSH2 0x2C51 JUMP JUMPDEST SWAP1 DUP2 MSTORE PUSH1 0x40 MLOAD SWAP1 DUP2 SWAP1 SUB PUSH1 0x20 ADD SWAP1 KECCAK256 SLOAD PUSH1 0xFF AND ISZERO PUSH2 0xAA9 JUMPI POP DUP8 SWAP4 POP DUP7 SWAP3 POP DUP6 SWAP2 POP DUP5 SWAP1 POP PUSH1 0x0 PUSH2 0xAE1 JUMP JUMPDEST PUSH1 0x12 DUP9 LT DUP1 PUSH2 0xAB8 JUMPI POP PUSH1 0x3C DUP9 GT JUMPDEST ISZERO PUSH2 0xAD1 JUMPI POP DUP8 SWAP4 POP DUP7 SWAP3 POP DUP6 SWAP2 POP DUP5 SWAP1 POP PUSH1 0x0 PUSH2 0xAE1 JUMP JUMPDEST POP DUP8 SWAP4 POP DUP7 SWAP3 POP DUP6 SWAP2 POP DUP5 SWAP1 POP PUSH1 0x1 JUMPDEST SWAP5 POP SWAP5 POP SWAP5 POP SWAP5 POP SWAP5 JUMP JUMPDEST PUSH1 0x0 PUSH1 0x2 JUMPDEST PUSH1 0x3 SLOAD PUSH1 0xFF AND PUSH1 0x2 DUP2 GT ISZERO PUSH2 0xB16 JUMPI PUSH4 0x4E487B71 PUSH1 0xE0 SHL PUSH1 0x0 MSTORE PUSH1 0x21 PUSH1 0x4 MSTORE PUSH1 0x24 PUSH1 0x0 REVERT JUMPDEST EQ SWAP1 POP SWAP1 JUMP JUMPDEST PUSH1 0x0 PUSH2 0xB27 DUP3 PUSH2 0x1DBD JUMP JUMPDEST POP PUSH1 0x1 JUMPDEST SWAP2 SWAP1 POP JUMP JUMPDEST ADDRESS PUSH1 0x1 PUSH1 0x1 PUSH1 0xA0 SHL SUB AND PUSH4 0x21DF0DA7 PUSH1 0x40 MLOAD DUP2 PUSH4 0xFFFFFFFF AND PUSH1 0xE0 SHL DUP2 MSTORE PUSH1 0x4 ADD PUSH1 0x20 PUSH1 0x40 MLOAD DUP1 DUP4 SUB DUP2 DUP7 DUP1 EXTCODESIZE ISZERO DUP1 ISZERO PUSH2 0xB69 JUMPI PUSH1 0x0 DUP1 REVERT JUMPDEST POP GAS STATICCALL ISZERO DUP1 ISZERO PUSH2 0xB7D JUMPI RETURNDATASIZE PUSH1 0x0 DUP1 RETURNDATACOPY RETURNDATASIZE PUSH1 0x0 REVERT JUMPDEST POP POP POP POP PUSH1 0x40 MLOAD RETURNDATASIZE PUSH1 0x1F NOT PUSH1 0x1F DUP3 ADD AND DUP3 ADD DUP1 PUSH1 0x40 MSTORE POP DUP2 ADD SWAP1 PUSH2 0xBA1 SWAP2 SWAP1 PUSH2 0x26F1 JUMP JUMPDEST PUSH1 0x1 PUSH1 0x1 PUSH1 0xA0 SHL SUB AND PUSH4 0x95EA7B3 PUSH1 0xB PUSH1 0x0 SWAP1 SLOAD SWAP1 PUSH2 0x100 EXP SWAP1 DIV PUSH1 0x1 PUSH1 0x1 PUSH1 0xA0 SHL SUB AND PUSH1 0x1 PUSH1 0x1 PUSH1 0xA0 SHL SUB AND PUSH4 0xE0024604 PUSH1 0x40 MLOAD DUP2 PUSH4 0xFFFFFFFF AND PUSH1 0xE0 SHL DUP2 MSTORE PUSH1 0x4 ADD PUSH1 0x20 PUSH1 0x40 MLOAD DUP1 DUP4 SUB DUP2 DUP7 DUP1 EXTCODESIZE ISZERO DUP1 ISZERO PUSH2 0xBFD JUMPI PUSH1 0x0 DUP1 REVERT JUMPDEST POP GAS STATICCALL ISZERO DUP1 ISZERO PUSH2 0xC11 JUMPI RETURNDATASIZE PUSH1 0x0 DUP1 RETURNDATACOPY RETURNDATASIZE PUSH1 0x0 REVERT JUMPDEST POP POP POP POP PUSH1 0x40 MLOAD RETURNDATASIZE PUSH1 0x1F NOT PUSH1 0x1F DUP3 ADD AND DUP3 ADD DUP1 PUSH1 0x40 MSTORE POP DUP2 ADD SWAP1 PUSH2 0xC35 SWAP2 SWAP1 PUSH2 0x26F1 JUMP JUMPDEST PUSH1 0x40 MLOAD PUSH1 0x1 PUSH1 0x1 PUSH1 0xE0 SHL SUB NOT PUSH1 0xE0 DUP5 SWAP1 SHL AND DUP2 MSTORE PUSH1 0x1 PUSH1 0x1 PUSH1 0xA0 SHL SUB SWAP1 SWAP2 AND PUSH1 0x4 DUP3 ADD MSTORE PUSH1 0x24 DUP2 ADD DUP5 SWAP1 MSTORE PUSH1 0x44 ADD PUSH1 0x20 PUSH1 0x40 MLOAD DUP1 DUP4 SUB DUP2 PUSH1 0x0 DUP8 DUP1 EXTCODESIZE ISZERO DUP1 ISZERO PUSH2 0xC7D JUMPI PUSH1 0x0 DUP1 REVERT JUMPDEST POP GAS CALL ISZERO DUP1 ISZERO PUSH2 0xC91 JUMPI RETURNDATASIZE PUSH1 0x0 DUP1 RETURNDATACOPY RETURNDATASIZE PUSH1 0x0 REVERT JUMPDEST POP POP POP POP PUSH1 0x40 MLOAD RETURNDATASIZE PUSH1 0x1F NOT PUSH1 0x1F DUP3 ADD AND DUP3 ADD DUP1 PUSH1 0x40 MSTORE POP DUP2 ADD SWAP1 PUSH2 0xCB5 SWAP2 SWAP1 PUSH2 0x270D JUMP JUMPDEST POP POP JUMP JUMPDEST PUSH2 0xCC1 PUSH2 0x1E18 JUMP JUMPDEST DUP1 PUSH1 0xA EQ PUSH2 0xD29 JUMPI PUSH1 0x40 MLOAD PUSH3 0x461BCD PUSH1 0xE5 SHL DUP2 MSTORE PUSH1 0x20 PUSH1 0x4 DUP3 ADD MSTORE PUSH1 0x2F PUSH1 0x24 DUP3 ADD MSTORE PUSH32 0x4552524F523A4E4542554C413A20414C4C4F57454420494E4352454D454E5420 PUSH1 0x44 DUP3 ADD MSTORE PUSH15 0x495320464143544F52204F4620313 PUSH1 0x8C SHL PUSH1 0x64 DUP3 ADD MSTORE PUSH1 0x84 ADD PUSH2 0x9ED JUMP JUMPDEST DUP1 PUSH1 0xD SLOAD PUSH2 0xD37 SWAP2 SWAP1 PUSH2 0x2E57 JUMP JUMPDEST PUSH1 0xD SSTORE POP JUMP JUMPDEST PUSH2 0xD45 PUSH2 0x1E18 JUMP JUMPDEST PUSH1 0x0 PUSH2 0xD50 DUP3 PUSH2 0x1E72 JUMP JUMPDEST SWAP1 POP PUSH1 0x0 PUSH2 0xD61 DUP3 PUSH1 0x60 ADD MLOAD PUSH2 0x14EB JUMP JUMPDEST SWAP1 POP PUSH1 0x11 DUP2 PUSH1 0x40 MLOAD PUSH2 0xD73 SWAP2 SWAP1 PUSH2 0x2C51 JUMP JUMPDEST SWAP1 DUP2 MSTORE PUSH1 0x40 MLOAD SWAP1 DUP2 SWAP1 SUB PUSH1 0x20 ADD SWAP1 KECCAK256 SLOAD PUSH1 0xFF AND PUSH2 0xDD2 JUMPI PUSH1 0x40 MLOAD PUSH3 0x461BCD PUSH1 0xE5 SHL DUP2 MSTORE PUSH1 0x20 PUSH1 0x4 DUP3 ADD MSTORE PUSH1 0x1F PUSH1 0x24 DUP3 ADD MSTORE PUSH32 0x4552524F523A4E4542554C412D3030353A455850495245445F504F4C49435900 PUSH1 0x44 DUP3 ADD MSTORE PUSH1 0x64 ADD PUSH2 0x9ED JUMP JUMPDEST PUSH2 0xDDB DUP4 PUSH2 0x1F2C JUMP JUMPDEST PUSH1 0x0 PUSH1 0x11 DUP3 PUSH1 0x40 MLOAD PUSH2 0xDED SWAP2 SWAP1 PUSH2 0x2C51 JUMP JUMPDEST SWAP1 DUP2 MSTORE PUSH1 0x40 MLOAD PUSH1 0x20 SWAP2 DUP2 SWAP1 SUB DUP3 ADD DUP2 KECCAK256 DUP1 SLOAD PUSH1 0xFF NOT AND SWAP4 ISZERO ISZERO SWAP4 SWAP1 SWAP4 OR SWAP1 SWAP3 SSTORE DUP5 DUP3 MSTORE PUSH32 0x6F88EC739598CA235E2B8AEAA73F9A2440E219568411ADF21649FFD0F0C2C01F SWAP2 ADD PUSH1 0x40 MLOAD DUP1 SWAP2 SUB SWAP1 LOG1 POP POP POP JUMP JUMPDEST PUSH1 0x0 PUSH1 0x64 PUSH2 0xE4F DUP4 PUSH1 0xA PUSH2 0x2E57 JUMP JUMPDEST PUSH2 0xE59 SWAP2 SWAP1 PUSH2 0x2E37 JUMP JUMPDEST SWAP3 SWAP2 POP POP JUMP JUMPDEST PUSH2 0xE74 PUSH9 0x10DBDB5C1BDB995B9D PUSH1 0xBA SHL PUSH2 0x1CFE JUMP JUMPDEST PUSH1 0x1 PUSH1 0x1 PUSH1 0xA0 SHL SUB AND CALLER PUSH1 0x1 PUSH1 0x1 PUSH1 0xA0 SHL SUB AND EQ PUSH2 0xEA4 JUMPI PUSH1 0x40 MLOAD PUSH3 0x461BCD PUSH1 0xE5 SHL DUP2 MSTORE PUSH1 0x4 ADD PUSH2 0x9ED SWAP1 PUSH2 0x2D8F JUMP JUMPDEST PUSH2 0x9FE JUMP JUMPDEST PUSH2 0xEBA PUSH5 0x5175657279 PUSH1 0xD8 SHL PUSH2 0x1CFE JUMP JUMPDEST PUSH1 0x1 PUSH1 0x1 PUSH1 0xA0 SHL SUB AND CALLER PUSH1 0x1 PUSH1 0x1 PUSH1 0xA0 SHL SUB AND EQ PUSH2 0xF1A JUMPI PUSH1 0x40 MLOAD PUSH3 0x461BCD PUSH1 0xE5 SHL DUP2 MSTORE PUSH1 0x20 PUSH1 0x4 DUP3 ADD MSTORE PUSH1 0x1B PUSH1 0x24 DUP3 ADD MSTORE PUSH32 0x4552524F523A5052442D3030333A4143434553535F44454E4945440000000000 PUSH1 0x44 DUP3 ADD MSTORE PUSH1 0x64 ADD PUSH2 0x9ED JUMP JUMPDEST PUSH1 0x0 PUSH2 0xF25 DUP5 PUSH2 0x1E72 JUMP JUMPDEST SWAP1 POP PUSH1 0x0 DUP2 PUSH1 0x40 ADD MLOAD SWAP1 POP PUSH1 0x0 PUSH2 0xF3F DUP4 PUSH1 0x60 ADD MLOAD PUSH2 0x14EB JUMP JUMPDEST SWAP1 POP PUSH1 0x0 PUSH2 0xF4C DUP8 PUSH2 0x1F5D JUMP JUMPDEST PUSH1 0x0 ADD MLOAD SWAP1 POP PUSH1 0x11 DUP3 PUSH1 0x40 MLOAD PUSH2 0xF62 SWAP2 SWAP1 PUSH2 0x2C51 JUMP JUMPDEST SWAP1 DUP2 MSTORE PUSH1 0x40 MLOAD SWAP1 DUP2 SWAP1 SUB PUSH1 0x20 ADD SWAP1 KECCAK256 SLOAD PUSH1 0xFF AND PUSH2 0xFC1 JUMPI PUSH1 0x40 MLOAD PUSH3 0x461BCD PUSH1 0xE5 SHL DUP2 MSTORE PUSH1 0x20 PUSH1 0x4 DUP3 ADD MSTORE PUSH1 0x1F PUSH1 0x24 DUP3 ADD MSTORE PUSH32 0x4552524F523A4E4542554C412D3030363A455850495245445F504F4C49435900 PUSH1 0x44 DUP3 ADD MSTORE PUSH1 0x64 ADD PUSH2 0x9ED JUMP JUMPDEST PUSH1 0x0 PUSH2 0xFCF DUP7 DUP9 ADD DUP9 PUSH2 0x275B JUMP JUMPDEST POP POP POP POP POP POP POP POP POP POP JUMP JUMPDEST PUSH2 0xFF0 PUSH9 0x10DBDB5C1BDB995B9D PUSH1 0xBA SHL PUSH2 0x1CFE JUMP JUMPDEST PUSH1 0x1 PUSH1 0x1 PUSH1 0xA0 SHL SUB AND CALLER PUSH1 0x1 PUSH1 0x1 PUSH1 0xA0 SHL SUB AND EQ PUSH2 0x1020 JUMPI PUSH1 0x40 MLOAD PUSH3 0x461BCD PUSH1 0xE5 SHL DUP2 MSTORE PUSH1 0x4 ADD PUSH2 0x9ED SWAP1 PUSH2 0x2D8F JUMP JUMPDEST PUSH2 0x9FE PUSH2 0x201D JUMP JUMPDEST PUSH1 0x0 DUP1 DUP1 DUP1 PUSH1 0xE SLOAD DUP6 LT PUSH2 0x1090 JUMPI PUSH1 0x40 MLOAD PUSH3 0x461BCD PUSH1 0xE5 SHL DUP2 MSTORE PUSH1 0x20 PUSH1 0x4 DUP3 ADD MSTORE PUSH1 0x29 PUSH1 0x24 DUP3 ADD MSTORE PUSH32 0x4552524F523A4E4542554C412D3030313A4150504C49434154494F4E5F49445F PUSH1 0x44 DUP3 ADD MSTORE PUSH9 0x125390D3D4949150D5 PUSH1 0xBA SHL PUSH1 0x64 DUP3 ADD MSTORE PUSH1 0x84 ADD PUSH2 0x9ED JUMP JUMPDEST PUSH1 0x10 DUP6 DUP2 SLOAD DUP2 LT PUSH2 0x10B1 JUMPI PUSH4 0x4E487B71 PUSH1 0xE0 SHL PUSH1 0x0 MSTORE PUSH1 0x32 PUSH1 0x4 MSTORE PUSH1 0x24 PUSH1 0x0 REVERT JUMPDEST PUSH1 0x0 SWAP2 DUP3 MSTORE PUSH1 0x20 SWAP1 SWAP2 KECCAK256 PUSH1 0x4 SWAP1 SWAP2 MUL ADD SLOAD PUSH1 0x10 DUP1 SLOAD PUSH1 0x1 PUSH1 0x1 PUSH1 0xA0 SHL SUB SWAP1 SWAP3 AND SWAP2 DUP8 SWAP1 DUP2 LT PUSH2 0x10F0 JUMPI PUSH4 0x4E487B71 PUSH1 0xE0 SHL PUSH1 0x0 MSTORE PUSH1 0x32 PUSH1 0x4 MSTORE PUSH1 0x24 PUSH1 0x0 REVERT JUMPDEST SWAP1 PUSH1 0x0 MSTORE PUSH1 0x20 PUSH1 0x0 KECCAK256 SWAP1 PUSH1 0x4 MUL ADD PUSH1 0x1 ADD PUSH1 0x0 SWAP1 SLOAD SWAP1 PUSH2 0x100 EXP SWAP1 DIV PUSH1 0x1 PUSH1 0x1 PUSH1 0xA0 SHL SUB AND PUSH1 0x10 DUP8 DUP2 SLOAD DUP2 LT PUSH2 0x1136 JUMPI PUSH4 0x4E487B71 PUSH1 0xE0 SHL PUSH1 0x0 MSTORE PUSH1 0x32 PUSH1 0x4 MSTORE PUSH1 0x24 PUSH1 0x0 REVERT JUMPDEST SWAP1 PUSH1 0x0 MSTORE PUSH1 0x20 PUSH1 0x0 KECCAK256 SWAP1 PUSH1 0x4 MUL ADD PUSH1 0x2 ADD SLOAD PUSH1 0x10 DUP9 DUP2 SLOAD DUP2 LT PUSH2 0x1169 JUMPI PUSH4 0x4E487B71 PUSH1 0xE0 SHL PUSH1 0x0 MSTORE PUSH1 0x32 PUSH1 0x4 MSTORE PUSH1 0x24 PUSH1 0x0 REVERT JUMPDEST SWAP1 PUSH1 0x0 MSTORE PUSH1 0x20 PUSH1 0x0 KECCAK256 SWAP1 PUSH1 0x4 MUL ADD PUSH1 0x3 ADD SLOAD SWAP4 POP SWAP4 POP SWAP4 POP SWAP4 POP SWAP2 SWAP4 POP SWAP2 SWAP4 JUMP JUMPDEST PUSH2 0x1192 PUSH2 0x1E18 JUMP JUMPDEST PUSH2 0x9FE PUSH1 0x0 PUSH2 0x2047 JUMP JUMPDEST PUSH1 0x0 PUSH2 0xE59 DUP3 PUSH2 0x2097 JUMP JUMPDEST PUSH1 0x0 PUSH2 0x11B2 DUP3 PUSH2 0x1E72 JUMP JUMPDEST PUSH1 0x40 DUP2 ADD MLOAD SWAP1 SWAP2 POP PUSH1 0x0 PUSH2 0x11C5 DUP3 PUSH2 0x2116 JUMP JUMPDEST SWAP1 POP PUSH1 0x0 PUSH2 0x11D2 DUP6 PUSH2 0x1F5D JUMP JUMPDEST PUSH1 0x20 DUP2 ADD MLOAD SWAP1 SWAP2 POP PUSH1 0x1 PUSH1 0x1 PUSH1 0xA0 SHL SUB AND CALLER EQ PUSH2 0x1231 JUMPI PUSH1 0x40 MLOAD PUSH3 0x461BCD PUSH1 0xE5 SHL DUP2 MSTORE PUSH1 0x20 PUSH1 0x4 DUP3 ADD MSTORE PUSH1 0x1C PUSH1 0x24 DUP3 ADD MSTORE PUSH32 0x4552524F523A4E4542554C412D3030373A4E4F545F4E4F4D494E454500000000 PUSH1 0x44 DUP3 ADD MSTORE PUSH1 0x64 ADD PUSH2 0x9ED JUMP JUMPDEST DUP2 ISZERO PUSH2 0x132F JUMPI PUSH1 0x40 DUP1 MLOAD PUSH1 0x0 DUP1 DUP3 MSTORE PUSH1 0x20 DUP3 ADD SWAP1 SWAP3 MSTORE SWAP1 PUSH2 0x1253 DUP8 DUP6 DUP5 PUSH2 0x2124 JUMP JUMPDEST SWAP1 POP PUSH2 0x1260 DUP8 DUP3 DUP7 PUSH2 0x21B3 JUMP JUMPDEST PUSH1 0x40 DUP1 MLOAD DUP9 DUP2 MSTORE PUSH1 0x20 DUP2 ADD DUP4 SWAP1 MSTORE SWAP1 DUP2 ADD DUP6 SWAP1 MSTORE PUSH32 0x7636D4691C9357A4852F7A6E1625C8FCF31DAF03EF65ACAD57821DCDC5B49ADB SWAP1 PUSH1 0x60 ADD PUSH1 0x40 MLOAD DUP1 SWAP2 SUB SWAP1 LOG1 PUSH1 0x0 PUSH2 0x12AF DUP9 DUP4 DUP8 DUP7 PUSH2 0x2224 JUMP JUMPDEST PUSH1 0xF SLOAD SWAP1 SWAP2 POP PUSH2 0x12CB SWAP1 DUP10 SWAP1 DUP4 SWAP1 PUSH1 0x1 PUSH1 0x1 PUSH1 0xA0 SHL SUB AND PUSH2 0x22B6 JUMP JUMPDEST POP POP PUSH1 0x40 DUP1 MLOAD DUP10 DUP2 MSTORE PUSH1 0x20 DUP2 ADD DUP5 SWAP1 MSTORE SWAP1 DUP2 ADD DUP3 SWAP1 MSTORE PUSH1 0x60 DUP2 ADD DUP7 SWAP1 MSTORE PUSH32 0xA181E05E1E565054951C43EA5C260285ACCA16F2A88DFCA73E0A7ADAD022D31F SWAP1 PUSH1 0x80 ADD PUSH1 0x40 MLOAD DUP1 SWAP2 SUB SWAP1 LOG1 PUSH2 0x131E DUP9 PUSH2 0x1F2C JUMP JUMPDEST PUSH2 0x1327 DUP9 PUSH2 0x2352 JUMP JUMPDEST POP POP POP PUSH2 0x1363 JUMP JUMPDEST PUSH1 0x40 MLOAD DUP3 DUP2 MSTORE PUSH32 0x511B5E8C686C58D46128E014F66EF13523E7940970C467CA2FBF37030A7E07A6 SWAP1 PUSH1 0x20 ADD PUSH1 0x40 MLOAD DUP1 SWAP2 SUB SWAP1 LOG1 JUMPDEST POP POP POP POP POP JUMP JUMPDEST PUSH1 0x0 DUP1 PUSH2 0xAF1 JUMP JUMPDEST PUSH1 0x10 DUP2 DUP2 SLOAD DUP2 LT PUSH2 0x1382 JUMPI PUSH1 0x0 DUP1 REVERT JUMPDEST PUSH1 0x0 SWAP2 DUP3 MSTORE PUSH1 0x20 SWAP1 SWAP2 KECCAK256 PUSH1 0x4 SWAP1 SWAP2 MUL ADD DUP1 SLOAD PUSH1 0x1 DUP3 ADD SLOAD PUSH1 0x2 DUP4 ADD SLOAD PUSH1 0x3 SWAP1 SWAP4 ADD SLOAD PUSH1 0x1 PUSH1 0x1 PUSH1 0xA0 SHL SUB SWAP3 DUP4 AND SWAP5 POP SWAP2 AND SWAP2 SWAP1 DUP5 JUMP JUMPDEST PUSH2 0x13CD PUSH9 0x10DBDB5C1BDB995B9D PUSH1 0xBA SHL PUSH2 0x1CFE JUMP JUMPDEST PUSH1 0x1 PUSH1 0x1 PUSH1 0xA0 SHL SUB AND CALLER PUSH1 0x1 PUSH1 0x1 PUSH1 0xA0 SHL SUB AND EQ PUSH2 0x13FD JUMPI PUSH1 0x40 MLOAD PUSH3 0x461BCD PUSH1 0xE5 SHL DUP2 MSTORE PUSH1 0x4 ADD PUSH2 0x9ED SWAP1 PUSH2 0x2D8F JUMP JUMPDEST PUSH2 0x9FE PUSH2 0x2383 JUMP JUMPDEST PUSH2 0x141A PUSH9 0x10DBDB5C1BDB995B9D PUSH1 0xBA SHL PUSH2 0x1CFE JUMP JUMPDEST PUSH1 0x1 PUSH1 0x1 PUSH1 0xA0 SHL SUB AND CALLER PUSH1 0x1 PUSH1 0x1 PUSH1 0xA0 SHL SUB AND EQ PUSH2 0x144A JUMPI PUSH1 0x40 MLOAD PUSH3 0x461BCD PUSH1 0xE5 SHL DUP2 MSTORE PUSH1 0x4 ADD PUSH2 0x9ED SWAP1 PUSH2 0x2D8F JUMP JUMPDEST PUSH1 0x2 SSTORE JUMP JUMPDEST PUSH1 0xE SLOAD PUSH1 0x0 SWAP1 DUP3 LT PUSH2 0x14B8 JUMPI PUSH1 0x40 MLOAD PUSH3 0x461BCD PUSH1 0xE5 SHL DUP2 MSTORE PUSH1 0x20 PUSH1 0x4 DUP3 ADD MSTORE PUSH1 0x2C PUSH1 0x24 DUP3 ADD MSTORE PUSH32 0x4552524F523A4E4542554C412D3030323A4150504C49434154494F4E5F494E44 PUSH1 0x44 DUP3 ADD MSTORE PUSH12 0x45585F544F4F5F4C41524745 PUSH1 0xA0 SHL PUSH1 0x64 DUP3 ADD MSTORE PUSH1 0x84 ADD PUSH2 0x9ED JUMP JUMPDEST PUSH1 0xE DUP3 DUP2 SLOAD DUP2 LT PUSH2 0x14D9 JUMPI PUSH4 0x4E487B71 PUSH1 0xE0 SHL PUSH1 0x0 MSTORE PUSH1 0x32 PUSH1 0x4 MSTORE PUSH1 0x24 PUSH1 0x0 REVERT JUMPDEST SWAP1 PUSH1 0x0 MSTORE PUSH1 0x20 PUSH1 0x0 KECCAK256 ADD SLOAD SWAP1 POP SWAP2 SWAP1 POP JUMP JUMPDEST PUSH1 0x60 DUP2 DUP1 PUSH1 0x20 ADD SWAP1 MLOAD DUP2 ADD SWAP1 PUSH2 0xE59 SWAP2 SWAP1 PUSH2 0x286C JUMP JUMPDEST PUSH2 0x1509 PUSH2 0x1E18 JUMP JUMPDEST PUSH1 0xA DUP2 GT ISZERO PUSH2 0x156C JUMPI PUSH1 0x40 MLOAD PUSH3 0x461BCD PUSH1 0xE5 SHL DUP2 MSTORE PUSH1 0x20 PUSH1 0x4 DUP3 ADD MSTORE PUSH1 0x29 PUSH1 0x24 DUP3 ADD MSTORE PUSH32 0x4552524F523A4E4542554C413A204D415820414C4C4F57454420494E4352454D PUSH1 0x44 DUP3 ADD MSTORE PUSH9 0x454E5420495320313 PUSH1 0xBC SHL PUSH1 0x64 DUP3 ADD MSTORE PUSH1 0x84 ADD PUSH2 0x9ED JUMP JUMPDEST DUP1 PUSH1 0xC SLOAD PUSH2 0x157A SWAP2 SWAP1 PUSH2 0x2E1F JUMP JUMPDEST PUSH1 0xC SSTORE POP JUMP JUMPDEST PUSH1 0x0 PUSH1 0x1 PUSH2 0xAF1 JUMP JUMPDEST PUSH1 0x0 DUP1 PUSH1 0x0 PUSH2 0x1597 DUP6 PUSH2 0x23AD JUMP JUMPDEST PUSH1 0x40 DUP1 MLOAD DUP10 DUP2 MSTORE PUSH1 0x20 DUP2 ADD DUP5 SWAP1 MSTORE SWAP1 DUP2 ADD DUP3 SWAP1 MSTORE SWAP3 SWAP6 POP SWAP1 SWAP4 POP SWAP2 POP PUSH32 0xBC64EC57A08667AD8FD050A3F074AAFB36EF62ED6F7E6612D73697736AD1E444 SWAP1 PUSH1 0x60 ADD PUSH1 0x40 MLOAD DUP1 SWAP2 SUB SWAP1 LOG1 SWAP3 POP SWAP3 POP SWAP3 JUMP JUMPDEST PUSH1 0x0 DUP1 DUP3 GT PUSH2 0x1643 JUMPI PUSH1 0x40 MLOAD PUSH3 0x461BCD PUSH1 0xE5 SHL DUP2 MSTORE PUSH1 0x20 PUSH1 0x4 DUP3 ADD MSTORE PUSH1 0x22 PUSH1 0x24 DUP3 ADD MSTORE PUSH32 0x4552524F523A4E4542554C412D3030333A4F424A4543545F56414C55455F5A45 PUSH1 0x44 DUP3 ADD MSTORE PUSH2 0x524F PUSH1 0xF0 SHL PUSH1 0x64 DUP3 ADD MSTORE PUSH1 0x84 ADD PUSH2 0x9ED JUMP JUMPDEST PUSH1 0x11 DUP8 PUSH1 0x40 MLOAD PUSH2 0x1653 SWAP2 SWAP1 PUSH2 0x2C51 JUMP JUMPDEST SWAP1 DUP2 MSTORE PUSH1 0x40 MLOAD SWAP1 DUP2 SWAP1 SUB PUSH1 0x20 ADD SWAP1 KECCAK256 SLOAD PUSH1 0xFF AND ISZERO PUSH2 0x16C1 JUMPI PUSH1 0x40 MLOAD PUSH3 0x461BCD PUSH1 0xE5 SHL DUP2 MSTORE PUSH1 0x20 PUSH1 0x4 DUP3 ADD MSTORE PUSH1 0x25 PUSH1 0x24 DUP3 ADD MSTORE PUSH32 0x4552524F523A4E4542554C412D3030343A4143544956455F504F4C4943595F45 PUSH1 0x44 DUP3 ADD MSTORE PUSH5 0x5849535453 PUSH1 0xD8 SHL PUSH1 0x64 DUP3 ADD MSTORE PUSH1 0x84 ADD PUSH2 0x9ED JUMP JUMPDEST PUSH1 0x12 DUP7 LT ISZERO DUP1 ISZERO PUSH2 0x16D3 JUMPI POP PUSH1 0x3C DUP7 GT ISZERO JUMPDEST PUSH2 0x172B JUMPI PUSH1 0x40 MLOAD PUSH3 0x461BCD PUSH1 0xE5 SHL DUP2 MSTORE PUSH1 0x20 PUSH1 0x4 DUP3 ADD MSTORE PUSH1 0x23 PUSH1 0x24 DUP3 ADD MSTORE PUSH32 0x4552524F523A4E4542554C412D3030353A4F5554534944455F4147455F4C494D PUSH1 0x44 DUP3 ADD MSTORE PUSH3 0x495453 PUSH1 0xE8 SHL PUSH1 0x64 DUP3 ADD MSTORE PUSH1 0x84 ADD PUSH2 0x9ED JUMP JUMPDEST PUSH1 0xD SLOAD DUP3 GT ISZERO PUSH2 0x179A JUMPI PUSH1 0x40 MLOAD PUSH3 0x461BCD PUSH1 0xE5 SHL DUP2 MSTORE PUSH1 0x20 PUSH1 0x4 DUP3 ADD MSTORE PUSH1 0x34 PUSH1 0x24 DUP3 ADD MSTORE PUSH32 0x4552524F523A4E4542554C412D3030363A4F424A4543545F56414C55455F544F PUSH1 0x44 DUP3 ADD MSTORE PUSH20 0x4F5F4C415247453A204D41582031302055534443 PUSH1 0x60 SHL PUSH1 0x64 DUP3 ADD MSTORE PUSH1 0x84 ADD PUSH2 0x9ED JUMP JUMPDEST PUSH1 0xC SLOAD PUSH1 0xE SLOAD LT PUSH2 0x17ED JUMPI PUSH1 0x40 MLOAD PUSH3 0x461BCD PUSH1 0xE5 SHL DUP2 MSTORE PUSH1 0x20 PUSH1 0x4 DUP3 ADD MSTORE PUSH1 0x1F PUSH1 0x24 DUP3 ADD MSTORE PUSH32 0x4552524F523A204D415820504F4C49435920434F554E54205245414348454400 PUSH1 0x44 DUP3 ADD MSTORE PUSH1 0x64 ADD PUSH2 0x9ED JUMP JUMPDEST PUSH1 0x0 PUSH2 0x17F8 DUP4 PUSH2 0xE40 JUMP JUMPDEST PUSH1 0x40 DUP1 MLOAD PUSH1 0x1 PUSH1 0x1 PUSH1 0xA0 SHL SUB DUP9 AND PUSH1 0x20 DUP3 ADD MSTORE SWAP2 SWAP3 POP PUSH1 0x0 SWAP2 ADD PUSH1 0x40 MLOAD PUSH1 0x20 DUP2 DUP4 SUB SUB DUP2 MSTORE SWAP1 PUSH1 0x40 MSTORE SWAP1 POP PUSH1 0x0 PUSH2 0x182E DUP11 PUSH2 0x1CB8 JUMP JUMPDEST SWAP1 POP PUSH2 0x183E CALLER DUP9 DUP6 DUP9 DUP7 DUP7 PUSH2 0x23FB JUMP JUMPDEST SWAP4 POP DUP3 ADDRESS PUSH1 0x1 PUSH1 0x1 PUSH1 0xA0 SHL SUB AND PUSH4 0x21DF0DA7 PUSH1 0x40 MLOAD DUP2 PUSH4 0xFFFFFFFF AND PUSH1 0xE0 SHL DUP2 MSTORE PUSH1 0x4 ADD PUSH1 0x20 PUSH1 0x40 MLOAD DUP1 DUP4 SUB DUP2 DUP7 DUP1 EXTCODESIZE ISZERO DUP1 ISZERO PUSH2 0x187A JUMPI PUSH1 0x0 DUP1 REVERT JUMPDEST POP GAS STATICCALL ISZERO DUP1 ISZERO PUSH2 0x188E JUMPI RETURNDATASIZE PUSH1 0x0 DUP1 RETURNDATACOPY RETURNDATASIZE PUSH1 0x0 REVERT JUMPDEST POP POP POP POP PUSH1 0x40 MLOAD RETURNDATASIZE PUSH1 0x1F NOT PUSH1 0x1F DUP3 ADD AND DUP3 ADD DUP1 PUSH1 0x40 MSTORE POP DUP2 ADD SWAP1 PUSH2 0x18B2 SWAP2 SWAP1 PUSH2 0x26F1 JUMP JUMPDEST PUSH1 0x1 PUSH1 0x1 PUSH1 0xA0 SHL SUB AND PUSH4 0xDD62ED3E CALLER PUSH1 0xB PUSH1 0x0 SWAP1 SLOAD SWAP1 PUSH2 0x100 EXP SWAP1 DIV PUSH1 0x1 PUSH1 0x1 PUSH1 0xA0 SHL SUB AND PUSH1 0x1 PUSH1 0x1 PUSH1 0xA0 SHL SUB AND PUSH4 0xE0024604 PUSH1 0x40 MLOAD DUP2 PUSH4 0xFFFFFFFF AND PUSH1 0xE0 SHL DUP2 MSTORE PUSH1 0x4 ADD PUSH1 0x20 PUSH1 0x40 MLOAD DUP1 DUP4 SUB DUP2 DUP7 DUP1 EXTCODESIZE ISZERO DUP1 ISZERO PUSH2 0x190F JUMPI PUSH1 0x0 DUP1 REVERT JUMPDEST POP GAS STATICCALL ISZERO DUP1 ISZERO PUSH2 0x1923 JUMPI RETURNDATASIZE PUSH1 0x0 DUP1 RETURNDATACOPY RETURNDATASIZE PUSH1 0x0 REVERT JUMPDEST POP POP POP POP PUSH1 0x40 MLOAD RETURNDATASIZE PUSH1 0x1F NOT PUSH1 0x1F DUP3 ADD AND DUP3 ADD DUP1 PUSH1 0x40 MSTORE POP DUP2 ADD SWAP1 PUSH2 0x1947 SWAP2 SWAP1 PUSH2 0x26F1 JUMP JUMPDEST PUSH1 0x40 MLOAD PUSH1 0x1 PUSH1 0x1 PUSH1 0xE0 SHL SUB NOT PUSH1 0xE0 DUP6 SWAP1 SHL AND DUP2 MSTORE PUSH1 0x1 PUSH1 0x1 PUSH1 0xA0 SHL SUB SWAP3 DUP4 AND PUSH1 0x4 DUP3 ADD MSTORE SWAP2 AND PUSH1 0x24 DUP3 ADD MSTORE PUSH1 0x44 ADD PUSH1 0x20 PUSH1 0x40 MLOAD DUP1 DUP4 SUB DUP2 DUP7 DUP1 EXTCODESIZE ISZERO DUP1 ISZERO PUSH2 0x198D JUMPI PUSH1 0x0 DUP1 REVERT JUMPDEST POP GAS STATICCALL ISZERO DUP1 ISZERO PUSH2 0x19A1 JUMPI RETURNDATASIZE PUSH1 0x0 DUP1 RETURNDATACOPY RETURNDATASIZE PUSH1 0x0 REVERT JUMPDEST POP POP POP POP PUSH1 0x40 MLOAD RETURNDATASIZE PUSH1 0x1F NOT PUSH1 0x1F DUP3 ADD AND DUP3 ADD DUP1 PUSH1 0x40 MSTORE POP DUP2 ADD SWAP1 PUSH2 0x19C5 SWAP2 SWAP1 PUSH2 0x279B JUMP JUMPDEST LT ISZERO PUSH2 0x1A2D JUMPI PUSH1 0x40 MLOAD PUSH3 0x461BCD PUSH1 0xE5 SHL DUP2 MSTORE PUSH1 0x20 PUSH1 0x4 DUP3 ADD MSTORE PUSH1 0x31 PUSH1 0x24 DUP3 ADD MSTORE PUSH32 0x4552524F523A4E4542554C412D5052454D49554D2D3030373A5052454D49554D PUSH1 0x44 DUP3 ADD MSTORE PUSH17 0x17D05353D5539517D25390D3D4949150D5 PUSH1 0x7A SHL PUSH1 0x64 DUP3 ADD MSTORE PUSH1 0x84 ADD PUSH2 0x9ED JUMP JUMPDEST PUSH1 0x0 PUSH2 0x1A38 DUP6 PUSH2 0x2097 JUMP JUMPDEST PUSH1 0xE DUP1 SLOAD PUSH1 0x1 DUP2 DUP2 ADD SWAP1 SWAP3 SSTORE PUSH32 0xBB7B4A454DC3493923482F07822329ED19E8244EFF582CC204F8554C3620C3FD ADD DUP8 SWAP1 SSTORE PUSH1 0x40 DUP1 MLOAD PUSH1 0x80 DUP2 ADD DUP3 MSTORE CALLER DUP2 MSTORE PUSH1 0x1 PUSH1 0x1 PUSH1 0xA0 SHL SUB DUP13 DUP2 AND PUSH1 0x20 DUP4 ADD SWAP1 DUP2 MSTORE SWAP3 DUP3 ADD DUP12 DUP2 MSTORE PUSH1 0x60 DUP4 ADD DUP11 DUP2 MSTORE PUSH1 0x10 DUP1 SLOAD SWAP7 DUP8 ADD DUP2 SSTORE PUSH1 0x0 MSTORE SWAP3 MLOAD PUSH1 0x4 SWAP1 SWAP6 MUL PUSH32 0x1B6847DC741A1B0CD08D278845F9D819D87B734759AFB55FE2DE5CB82A9AE672 DUP2 ADD DUP1 SLOAD SWAP7 DUP5 AND PUSH1 0x1 PUSH1 0x1 PUSH1 0xA0 SHL SUB NOT SWAP8 DUP9 AND OR SWAP1 SSTORE SWAP4 MLOAD PUSH32 0x1B6847DC741A1B0CD08D278845F9D819D87B734759AFB55FE2DE5CB82A9AE673 DUP6 ADD DUP1 SLOAD SWAP2 SWAP1 SWAP4 AND SWAP6 AND SWAP5 SWAP1 SWAP5 OR SWAP1 SSTORE SWAP2 MLOAD PUSH32 0x1B6847DC741A1B0CD08D278845F9D819D87B734759AFB55FE2DE5CB82A9AE674 DUP3 ADD SSTORE SWAP1 MLOAD PUSH32 0x1B6847DC741A1B0CD08D278845F9D819D87B734759AFB55FE2DE5CB82A9AE675 SWAP1 SWAP2 ADD SSTORE SWAP1 POP DUP1 ISZERO PUSH2 0x1BF3 JUMPI PUSH1 0x1 PUSH1 0x11 DUP13 PUSH1 0x40 MLOAD PUSH2 0x1B79 SWAP2 SWAP1 PUSH2 0x2C51 JUMP JUMPDEST SWAP1 DUP2 MSTORE PUSH1 0x40 DUP1 MLOAD PUSH1 0x20 SWAP3 DUP2 SWAP1 SUB DUP4 ADD DUP2 KECCAK256 DUP1 SLOAD PUSH1 0xFF NOT AND SWAP5 ISZERO ISZERO SWAP5 SWAP1 SWAP5 OR SWAP1 SWAP4 SSTORE DUP8 DUP4 MSTORE CALLER SWAP2 DUP4 ADD SWAP2 SWAP1 SWAP2 MSTORE PUSH1 0x1 PUSH1 0x1 PUSH1 0xA0 SHL SUB DUP11 AND SWAP1 DUP3 ADD MSTORE PUSH1 0x60 DUP2 ADD DUP8 SWAP1 MSTORE PUSH1 0x80 DUP2 ADD DUP6 SWAP1 MSTORE PUSH32 0x420BE8915160506C08C7068E0FF356003C107D194797FDDF42BF6E76CC24F194 SWAP1 PUSH1 0xA0 ADD PUSH1 0x40 MLOAD DUP1 SWAP2 SUB SWAP1 LOG1 PUSH2 0x1C34 JUMP JUMPDEST PUSH1 0x40 DUP1 MLOAD DUP7 DUP2 MSTORE CALLER PUSH1 0x20 DUP3 ADD MSTORE SWAP1 DUP2 ADD DUP6 SWAP1 MSTORE PUSH32 0x133B8A8231439D43A69B24269690D4611EB89CCF05497DB97687C42BEBBE525F SWAP1 PUSH1 0x60 ADD PUSH1 0x40 MLOAD DUP1 SWAP2 SUB SWAP1 LOG1 JUMPDEST POP POP POP POP SWAP7 SWAP6 POP POP POP POP POP POP JUMP JUMPDEST PUSH2 0x1C4A PUSH2 0x1E18 JUMP JUMPDEST PUSH1 0x1 PUSH1 0x1 PUSH1 0xA0 SHL SUB DUP2 AND PUSH2 0x1CAF JUMPI PUSH1 0x40 MLOAD PUSH3 0x461BCD PUSH1 0xE5 SHL DUP2 MSTORE PUSH1 0x20 PUSH1 0x4 DUP3 ADD MSTORE PUSH1 0x26 PUSH1 0x24 DUP3 ADD MSTORE PUSH32 0x4F776E61626C653A206E6577206F776E657220697320746865207A65726F2061 PUSH1 0x44 DUP3 ADD MSTORE PUSH6 0x646472657373 PUSH1 0xD0 SHL PUSH1 0x64 DUP3 ADD MSTORE PUSH1 0x84 ADD PUSH2 0x9ED JUMP JUMPDEST PUSH2 0x903 DUP2 PUSH2 0x2047 JUMP JUMPDEST PUSH1 0x60 DUP2 PUSH1 0x40 MLOAD PUSH1 0x20 ADD PUSH2 0x1CCB SWAP2 SWAP1 PUSH2 0x2C51 JUMP JUMPDEST PUSH1 0x40 DUP1 MLOAD PUSH1 0x1F NOT DUP2 DUP5 SUB ADD DUP2 MSTORE SWAP1 DUP3 SWAP1 MSTORE PUSH2 0x1CE8 SWAP2 PUSH1 0x20 ADD PUSH2 0x2D14 JUMP JUMPDEST PUSH1 0x40 MLOAD PUSH1 0x20 DUP2 DUP4 SUB SUB DUP2 MSTORE SWAP1 PUSH1 0x40 MSTORE SWAP1 POP SWAP2 SWAP1 POP JUMP JUMPDEST PUSH1 0x3 SLOAD PUSH1 0x40 MLOAD PUSH4 0x1C2D8FB3 PUSH1 0xE3 SHL DUP2 MSTORE PUSH1 0x4 DUP2 ADD DUP4 SWAP1 MSTORE PUSH1 0x0 SWAP2 PUSH2 0x100 SWAP1 DIV PUSH1 0x1 PUSH1 0x1 PUSH1 0xA0 SHL SUB AND SWAP1 PUSH4 0xE16C7D98 SWAP1 PUSH1 0x24 ADD PUSH1 0x20 PUSH1 0x40 MLOAD DUP1 DUP4 SUB DUP2 DUP7 DUP1 EXTCODESIZE ISZERO DUP1 ISZERO PUSH2 0x1D48 JUMPI PUSH1 0x0 DUP1 REVERT JUMPDEST POP GAS STATICCALL ISZERO DUP1 ISZERO PUSH2 0x1D5C JUMPI RETURNDATASIZE PUSH1 0x0 DUP1 RETURNDATACOPY RETURNDATASIZE PUSH1 0x0 REVERT JUMPDEST POP POP POP POP PUSH1 0x40 MLOAD RETURNDATASIZE PUSH1 0x1F NOT PUSH1 0x1F DUP3 ADD AND DUP3 ADD DUP1 PUSH1 0x40 MSTORE POP DUP2 ADD SWAP1 PUSH2 0xE59 SWAP2 SWAP1 PUSH2 0x26F1 JUMP JUMPDEST PUSH32 0xB79D34516B55D664B61192AA41FBC0625B132FB7129BD3B3A31F46D1BEFA7061 PUSH2 0x1DAA PUSH1 0x2 SLOAD SWAP1 JUMP JUMPDEST PUSH1 0x40 MLOAD SWAP1 DUP2 MSTORE PUSH1 0x20 ADD PUSH1 0x40 MLOAD DUP1 SWAP2 SUB SWAP1 LOG1 JUMP JUMPDEST PUSH1 0xA SLOAD PUSH1 0x40 MLOAD PUSH4 0x8CC7D3D1 PUSH1 0xE0 SHL DUP2 MSTORE PUSH1 0x4 DUP2 ADD DUP4 SWAP1 MSTORE PUSH1 0x1 PUSH1 0x1 PUSH1 0xA0 SHL SUB SWAP1 SWAP2 AND SWAP1 PUSH4 0x8CC7D3D1 SWAP1 PUSH1 0x24 ADD JUMPDEST PUSH1 0x0 PUSH1 0x40 MLOAD DUP1 DUP4 SUB DUP2 PUSH1 0x0 DUP8 DUP1 EXTCODESIZE ISZERO DUP1 ISZERO PUSH2 0x1E04 JUMPI PUSH1 0x0 DUP1 REVERT JUMPDEST POP GAS CALL ISZERO DUP1 ISZERO PUSH2 0x1363 JUMPI RETURNDATASIZE PUSH1 0x0 DUP1 RETURNDATACOPY RETURNDATASIZE PUSH1 0x0 REVERT JUMPDEST PUSH1 0x0 SLOAD PUSH1 0x1 PUSH1 0x1 PUSH1 0xA0 SHL SUB AND CALLER EQ PUSH2 0x9FE JUMPI PUSH1 0x40 MLOAD PUSH3 0x461BCD PUSH1 0xE5 SHL DUP2 MSTORE PUSH1 0x20 PUSH1 0x4 DUP3 ADD DUP2 SWAP1 MSTORE PUSH1 0x24 DUP3 ADD MSTORE PUSH32 0x4F776E61626C653A2063616C6C6572206973206E6F7420746865206F776E6572 PUSH1 0x44 DUP3 ADD MSTORE PUSH1 0x64 ADD PUSH2 0x9ED JUMP JUMPDEST PUSH2 0x1EAC PUSH1 0x40 DUP1 MLOAD PUSH1 0xC0 DUP2 ADD SWAP1 SWAP2 MSTORE DUP1 PUSH1 0x0 DUP2 MSTORE PUSH1 0x20 ADD PUSH1 0x0 DUP2 MSTORE PUSH1 0x20 ADD PUSH1 0x0 DUP2 MSTORE PUSH1 0x20 ADD PUSH1 0x60 DUP2 MSTORE PUSH1 0x20 ADD PUSH1 0x0 DUP2 MSTORE PUSH1 0x20 ADD PUSH1 0x0 DUP2 MSTORE POP SWAP1 JUMP JUMPDEST PUSH1 0xB SLOAD PUSH1 0x40 MLOAD PUSH4 0x2F141BD9 PUSH1 0xE2 SHL DUP2 MSTORE PUSH1 0x4 DUP2 ADD DUP5 SWAP1 MSTORE PUSH1 0x1 PUSH1 0x1 PUSH1 0xA0 SHL SUB SWAP1 SWAP2 AND SWAP1 PUSH4 0xBC506F64 SWAP1 PUSH1 0x24 ADD PUSH1 0x0 PUSH1 0x40 MLOAD DUP1 DUP4 SUB DUP2 DUP7 DUP1 EXTCODESIZE ISZERO DUP1 ISZERO PUSH2 0x1EF0 JUMPI PUSH1 0x0 DUP1 REVERT JUMPDEST POP GAS STATICCALL ISZERO DUP1 ISZERO PUSH2 0x1F04 JUMPI RETURNDATASIZE PUSH1 0x0 DUP1 RETURNDATACOPY RETURNDATASIZE PUSH1 0x0 REVERT JUMPDEST POP POP POP POP PUSH1 0x40 MLOAD RETURNDATASIZE PUSH1 0x0 DUP3 RETURNDATACOPY PUSH1 0x1F RETURNDATASIZE SWAP1 DUP2 ADD PUSH1 0x1F NOT AND DUP3 ADD PUSH1 0x40 MSTORE PUSH2 0xE59 SWAP2 SWAP1 DUP2 ADD SWAP1 PUSH2 0x2995 JUMP JUMPDEST PUSH1 0xA SLOAD PUSH1 0x40 MLOAD PUSH4 0x18C882F3 PUSH1 0xE3 SHL DUP2 MSTORE PUSH1 0x4 DUP2 ADD DUP4 SWAP1 MSTORE PUSH1 0x1 PUSH1 0x1 PUSH1 0xA0 SHL SUB SWAP1 SWAP2 AND SWAP1 PUSH4 0xC6441798 SWAP1 PUSH1 0x24 ADD PUSH2 0x1DEA JUMP JUMPDEST PUSH2 0x1F9D PUSH1 0x40 DUP1 MLOAD PUSH1 0xE0 DUP2 ADD DUP3 MSTORE PUSH1 0x0 DUP1 DUP3 MSTORE PUSH1 0x20 DUP3 ADD DUP2 SWAP1 MSTORE SWAP2 DUP2 ADD DUP3 SWAP1 MSTORE SWAP1 PUSH1 0x60 DUP3 ADD SWAP1 DUP2 MSTORE PUSH1 0x20 ADD PUSH1 0x60 DUP2 MSTORE PUSH1 0x20 ADD PUSH1 0x0 DUP2 MSTORE PUSH1 0x20 ADD PUSH1 0x0 DUP2 MSTORE POP SWAP1 JUMP JUMPDEST PUSH1 0xB SLOAD PUSH1 0x40 MLOAD PUSH4 0x296586D3 PUSH1 0xE2 SHL DUP2 MSTORE PUSH1 0x4 DUP2 ADD DUP5 SWAP1 MSTORE PUSH1 0x1 PUSH1 0x1 PUSH1 0xA0 SHL SUB SWAP1 SWAP2 AND SWAP1 PUSH4 0xA5961B4C SWAP1 PUSH1 0x24 ADD PUSH1 0x0 PUSH1 0x40 MLOAD DUP1 DUP4 SUB DUP2 DUP7 DUP1 EXTCODESIZE ISZERO DUP1 ISZERO PUSH2 0x1FE1 JUMPI PUSH1 0x0 DUP1 REVERT JUMPDEST POP GAS STATICCALL ISZERO DUP1 ISZERO PUSH2 0x1FF5 JUMPI RETURNDATASIZE PUSH1 0x0 DUP1 RETURNDATACOPY RETURNDATASIZE PUSH1 0x0 REVERT JUMPDEST POP POP POP POP PUSH1 0x40 MLOAD RETURNDATASIZE PUSH1 0x0 DUP3 RETURNDATACOPY PUSH1 0x1F RETURNDATASIZE SWAP1 DUP2 ADD PUSH1 0x1F NOT AND DUP3 ADD PUSH1 0x40 MSTORE PUSH2 0xE59 SWAP2 SWAP1 DUP2 ADD SWAP1 PUSH2 0x2A43 JUMP JUMPDEST PUSH32 0xCFF3B7B8B07D4D8F74BF41F05737717140D5916781B9DFF86EA0B996F2FDB9F9 PUSH2 0x1DAA PUSH1 0x2 SLOAD SWAP1 JUMP JUMPDEST PUSH1 0x0 DUP1 SLOAD PUSH1 0x1 PUSH1 0x1 PUSH1 0xA0 SHL SUB DUP4 DUP2 AND PUSH1 0x1 PUSH1 0x1 PUSH1 0xA0 SHL SUB NOT DUP4 AND DUP2 OR DUP5 SSTORE PUSH1 0x40 MLOAD SWAP2 SWAP1 SWAP3 AND SWAP3 DUP4 SWAP2 PUSH32 0x8BE0079C531659141344CD1FD0A4F28419497F9722A3DAAFE3B4186F6B6457E0 SWAP2 SWAP1 LOG3 POP POP JUMP JUMPDEST PUSH1 0xA SLOAD PUSH1 0x40 MLOAD PUSH4 0x1B07B17F PUSH1 0xE0 SHL DUP2 MSTORE PUSH1 0x4 DUP2 ADD DUP4 SWAP1 MSTORE PUSH1 0x0 SWAP2 PUSH1 0x1 PUSH1 0x1 PUSH1 0xA0 SHL SUB AND SWAP1 PUSH4 0x1B07B17F SWAP1 PUSH1 0x24 ADD PUSH1 0x20 PUSH1 0x40 MLOAD DUP1 DUP4 SUB DUP2 PUSH1 0x0 DUP8 DUP1 EXTCODESIZE ISZERO DUP1 ISZERO PUSH2 0x20DE JUMPI PUSH1 0x0 DUP1 REVERT JUMPDEST POP GAS CALL ISZERO DUP1 ISZERO PUSH2 0x20F2 JUMPI RETURNDATASIZE PUSH1 0x0 DUP1 RETURNDATACOPY RETURNDATASIZE PUSH1 0x0 REVERT JUMPDEST POP POP POP POP PUSH1 0x40 MLOAD RETURNDATASIZE PUSH1 0x1F NOT PUSH1 0x1F DUP3 ADD AND DUP3 ADD DUP1 PUSH1 0x40 MSTORE POP DUP2 ADD SWAP1 PUSH2 0xE59 SWAP2 SWAP1 PUSH2 0x270D JUMP JUMPDEST PUSH1 0x0 PUSH1 0x64 PUSH2 0xE4F DUP4 DUP3 PUSH2 0x2E57 JUMP JUMPDEST PUSH1 0xA SLOAD PUSH1 0x40 MLOAD PUSH4 0xFAE43D15 PUSH1 0xE0 SHL DUP2 MSTORE PUSH1 0x0 SWAP2 PUSH1 0x1 PUSH1 0x1 PUSH1 0xA0 SHL SUB AND SWAP1 PUSH4 0xFAE43D15 SWAP1 PUSH2 0x2159 SWAP1 DUP8 SWAP1 DUP8 SWAP1 DUP8 SWAP1 PUSH1 0x4 ADD PUSH2 0x2CC6 JUMP JUMPDEST PUSH1 0x20 PUSH1 0x40 MLOAD DUP1 DUP4 SUB DUP2 PUSH1 0x0 DUP8 DUP1 EXTCODESIZE ISZERO DUP1 ISZERO PUSH2 0x2173 JUMPI PUSH1 0x0 DUP1 REVERT JUMPDEST POP GAS CALL ISZERO DUP1 ISZERO PUSH2 0x2187 JUMPI RETURNDATASIZE PUSH1 0x0 DUP1 RETURNDATACOPY RETURNDATASIZE PUSH1 0x0 REVERT JUMPDEST POP POP POP POP PUSH1 0x40 MLOAD RETURNDATASIZE PUSH1 0x1F NOT PUSH1 0x1F DUP3 ADD AND DUP3 ADD DUP1 PUSH1 0x40 MSTORE POP DUP2 ADD SWAP1 PUSH2 0x21AB SWAP2 SWAP1 PUSH2 0x279B JUMP JUMPDEST SWAP5 SWAP4 POP POP POP POP JUMP JUMPDEST PUSH1 0xA SLOAD PUSH1 0x40 MLOAD PUSH4 0x4E02C63F PUSH1 0xE0 SHL DUP2 MSTORE PUSH1 0x4 DUP2 ADD DUP6 SWAP1 MSTORE PUSH1 0x24 DUP2 ADD DUP5 SWAP1 MSTORE PUSH1 0x44 DUP2 ADD DUP4 SWAP1 MSTORE PUSH1 0x1 PUSH1 0x1 PUSH1 0xA0 SHL SUB SWAP1 SWAP2 AND SWAP1 PUSH4 0x4E02C63F SWAP1 PUSH1 0x64 ADD PUSH1 0x0 PUSH1 0x40 MLOAD DUP1 DUP4 SUB DUP2 PUSH1 0x0 DUP8 DUP1 EXTCODESIZE ISZERO DUP1 ISZERO PUSH2 0x2207 JUMPI PUSH1 0x0 DUP1 REVERT JUMPDEST POP GAS CALL ISZERO DUP1 ISZERO PUSH2 0x221B JUMPI RETURNDATASIZE PUSH1 0x0 DUP1 RETURNDATACOPY RETURNDATASIZE PUSH1 0x0 REVERT JUMPDEST POP POP POP POP POP POP POP JUMP JUMPDEST PUSH1 0xA SLOAD PUSH1 0x40 MLOAD PUSH4 0x3C0EBC23 PUSH1 0xE1 SHL DUP2 MSTORE PUSH1 0x0 SWAP2 PUSH1 0x1 PUSH1 0x1 PUSH1 0xA0 SHL SUB AND SWAP1 PUSH4 0x781D7846 SWAP1 PUSH2 0x225B SWAP1 DUP9 SWAP1 DUP9 SWAP1 DUP9 SWAP1 DUP9 SWAP1 PUSH1 0x4 ADD PUSH2 0x2CE5 JUMP JUMPDEST PUSH1 0x20 PUSH1 0x40 MLOAD DUP1 DUP4 SUB DUP2 PUSH1 0x0 DUP8 DUP1 EXTCODESIZE ISZERO DUP1 ISZERO PUSH2 0x2275 JUMPI PUSH1 0x0 DUP1 REVERT JUMPDEST POP GAS CALL ISZERO DUP1 ISZERO PUSH2 0x2289 JUMPI RETURNDATASIZE PUSH1 0x0 DUP1 RETURNDATACOPY RETURNDATASIZE PUSH1 0x0 REVERT JUMPDEST POP POP POP POP PUSH1 0x40 MLOAD RETURNDATASIZE PUSH1 0x1F NOT PUSH1 0x1F DUP3 ADD AND DUP3 ADD DUP1 PUSH1 0x40 MSTORE POP DUP2 ADD SWAP1 PUSH2 0x22AD SWAP2 SWAP1 PUSH2 0x279B JUMP JUMPDEST SWAP6 SWAP5 POP POP POP POP POP JUMP JUMPDEST PUSH1 0xA SLOAD PUSH1 0x40 MLOAD PUSH4 0x1EA84F21 PUSH1 0xE1 SHL DUP2 MSTORE PUSH1 0x4 DUP2 ADD DUP6 SWAP1 MSTORE PUSH1 0x24 DUP2 ADD DUP5 SWAP1 MSTORE PUSH1 0x1 PUSH1 0x1 PUSH1 0xA0 SHL SUB DUP4 DUP2 AND PUSH1 0x44 DUP4 ADD MSTORE PUSH1 0x0 SWAP3 DUP4 SWAP3 SWAP2 AND SWAP1 PUSH4 0x3D509E42 SWAP1 PUSH1 0x64 ADD PUSH1 0x40 DUP1 MLOAD DUP1 DUP4 SUB DUP2 PUSH1 0x0 DUP8 DUP1 EXTCODESIZE ISZERO DUP1 ISZERO PUSH2 0x230E JUMPI PUSH1 0x0 DUP1 REVERT JUMPDEST POP GAS CALL ISZERO DUP1 ISZERO PUSH2 0x2322 JUMPI RETURNDATASIZE PUSH1 0x0 DUP1 RETURNDATACOPY RETURNDATASIZE PUSH1 0x0 REVERT JUMPDEST POP POP POP POP PUSH1 0x40 MLOAD RETURNDATASIZE PUSH1 0x1F NOT PUSH1 0x1F DUP3 ADD AND DUP3 ADD DUP1 PUSH1 0x40 MSTORE POP DUP2 ADD SWAP1 PUSH2 0x2346 SWAP2 SWAP1 PUSH2 0x2C02 JUMP JUMPDEST SWAP1 SWAP7 SWAP1 SWAP6 POP SWAP4 POP POP POP POP JUMP JUMPDEST PUSH1 0xA SLOAD PUSH1 0x40 MLOAD PUSH4 0xE71E783 PUSH1 0xE2 SHL DUP2 MSTORE PUSH1 0x4 DUP2 ADD DUP4 SWAP1 MSTORE PUSH1 0x1 PUSH1 0x1 PUSH1 0xA0 SHL SUB SWAP1 SWAP2 AND SWAP1 PUSH4 0x39C79E0C SWAP1 PUSH1 0x24 ADD PUSH2 0x1DEA JUMP JUMPDEST PUSH32 0x38954B1D025D5A8FFCF9B42D431BE2745CDCD05D32B0E5AD33EE2DB025EF5B55 PUSH2 0x1DAA PUSH1 0x2 SLOAD SWAP1 JUMP JUMPDEST PUSH1 0x0 DUP1 PUSH1 0x0 DUP1 PUSH2 0x23BC DUP6 PUSH2 0x2493 JUMP JUMPDEST SWAP1 POP DUP1 PUSH1 0x20 ADD MLOAD DUP2 PUSH1 0x40 ADD MLOAD LT ISZERO PUSH2 0x23F3 JUMPI PUSH2 0x23EB DUP6 DUP3 PUSH1 0x40 ADD MLOAD DUP4 PUSH1 0x20 ADD MLOAD PUSH2 0x23E6 SWAP2 SWAP1 PUSH2 0x2E76 JUMP JUMPDEST PUSH2 0x2560 JUMP JUMPDEST SWAP2 SWAP6 POP SWAP4 POP SWAP2 POP JUMPDEST POP SWAP2 SWAP4 SWAP1 SWAP3 POP JUMP JUMPDEST PUSH1 0xA SLOAD PUSH1 0x40 MLOAD PUSH4 0x7395A563 PUSH1 0xE0 SHL DUP2 MSTORE PUSH1 0x0 SWAP2 PUSH1 0x1 PUSH1 0x1 PUSH1 0xA0 SHL SUB AND SWAP1 PUSH4 0x7395A563 SWAP1 PUSH2 0x2436 SWAP1 DUP11 SWAP1 DUP11 SWAP1 DUP11 SWAP1 DUP11 SWAP1 DUP11 SWAP1 DUP11 SWAP1 PUSH1 0x4 ADD PUSH2 0x2C6D JUMP JUMPDEST PUSH1 0x20 PUSH1 0x40 MLOAD DUP1 DUP4 SUB DUP2 PUSH1 0x0 DUP8 DUP1 EXTCODESIZE ISZERO DUP1 ISZERO PUSH2 0x2450 JUMPI PUSH1 0x0 DUP1 REVERT JUMPDEST POP GAS CALL ISZERO DUP1 ISZERO PUSH2 0x2464 JUMPI RETURNDATASIZE PUSH1 0x0 DUP1 RETURNDATACOPY RETURNDATASIZE PUSH1 0x0 REVERT JUMPDEST POP POP POP POP PUSH1 0x40 MLOAD RETURNDATASIZE PUSH1 0x1F NOT PUSH1 0x1F DUP3 ADD AND DUP3 ADD DUP1 PUSH1 0x40 MSTORE POP DUP2 ADD SWAP1 PUSH2 0x2488 SWAP2 SWAP1 PUSH2 0x279B JUMP JUMPDEST SWAP8 SWAP7 POP POP POP POP POP POP POP JUMP JUMPDEST PUSH2 0x24E3 PUSH1 0x40 DUP1 MLOAD PUSH2 0x120 DUP2 ADD SWAP1 SWAP2 MSTORE DUP1 PUSH1 0x0 DUP2 MSTORE PUSH1 0x20 ADD PUSH1 0x0 DUP2 MSTORE PUSH1 0x20 ADD PUSH1 0x0 DUP2 MSTORE PUSH1 0x20 ADD PUSH1 0x0 DUP2 MSTORE PUSH1 0x20 ADD PUSH1 0x0 DUP2 MSTORE PUSH1 0x20 ADD PUSH1 0x0 DUP2 MSTORE PUSH1 0x20 ADD PUSH1 0x0 DUP2 MSTORE PUSH1 0x20 ADD PUSH1 0x0 DUP2 MSTORE PUSH1 0x20 ADD PUSH1 0x0 DUP2 MSTORE POP SWAP1 JUMP JUMPDEST PUSH1 0xB SLOAD PUSH1 0x40 MLOAD PUSH4 0xA3F685F9 PUSH1 0xE0 SHL DUP2 MSTORE PUSH1 0x4 DUP2 ADD DUP5 SWAP1 MSTORE PUSH1 0x1 PUSH1 0x1 PUSH1 0xA0 SHL SUB SWAP1 SWAP2 AND SWAP1 PUSH4 0xA3F685F9 SWAP1 PUSH1 0x24 ADD PUSH2 0x120 PUSH1 0x40 MLOAD DUP1 DUP4 SUB DUP2 DUP7 DUP1 EXTCODESIZE ISZERO DUP1 ISZERO PUSH2 0x2528 JUMPI PUSH1 0x0 DUP1 REVERT JUMPDEST POP GAS STATICCALL ISZERO DUP1 ISZERO PUSH2 0x253C JUMPI RETURNDATASIZE PUSH1 0x0 DUP1 RETURNDATACOPY RETURNDATASIZE PUSH1 0x0 REVERT JUMPDEST POP POP POP POP PUSH1 0x40 MLOAD RETURNDATASIZE PUSH1 0x1F NOT PUSH1 0x1F DUP3 ADD AND DUP3 ADD DUP1 PUSH1 0x40 MSTORE POP DUP2 ADD SWAP1 PUSH2 0xE59 SWAP2 SWAP1 PUSH2 0x2B02 JUMP JUMPDEST PUSH1 0xA SLOAD PUSH1 0x40 MLOAD PUSH4 0xE3EBDEA5 PUSH1 0xE0 SHL DUP2 MSTORE PUSH1 0x4 DUP2 ADD DUP5 SWAP1 MSTORE PUSH1 0x24 DUP2 ADD DUP4 SWAP1 MSTORE PUSH1 0x0 SWAP2 DUP3 SWAP2 DUP3 SWAP2 PUSH1 0x1 PUSH1 0x1 PUSH1 0xA0 SHL SUB AND SWAP1 PUSH4 0xE3EBDEA5 SWAP1 PUSH1 0x44 ADD PUSH1 0x60 PUSH1 0x40 MLOAD DUP1 DUP4 SUB DUP2 PUSH1 0x0 DUP8 DUP1 EXTCODESIZE ISZERO DUP1 ISZERO PUSH2 0x25B2 JUMPI PUSH1 0x0 DUP1 REVERT JUMPDEST POP GAS CALL ISZERO DUP1 ISZERO PUSH2 0x25C6 JUMPI RETURNDATASIZE PUSH1 0x0 DUP1 RETURNDATACOPY RETURNDATASIZE PUSH1 0x0 REVERT JUMPDEST POP POP POP POP PUSH1 0x40 MLOAD RETURNDATASIZE PUSH1 0x1F NOT PUSH1 0x1F DUP3 ADD AND DUP3 ADD DUP1 PUSH1 0x40 MSTORE POP DUP2 ADD SWAP1 PUSH2 0x25EA SWAP2 SWAP1 PUSH2 0x2727 JUMP JUMPDEST SWAP2 SWAP8 SWAP1 SWAP7 POP SWAP1 SWAP5 POP SWAP3 POP POP POP JUMP JUMPDEST PUSH1 0x0 PUSH2 0x260B PUSH2 0x2606 DUP5 PUSH2 0x2DF7 JUMP JUMPDEST PUSH2 0x2DC6 JUMP JUMPDEST SWAP1 POP DUP3 DUP2 MSTORE DUP4 DUP4 DUP4 ADD GT ISZERO PUSH2 0x261F JUMPI PUSH1 0x0 DUP1 REVERT JUMPDEST DUP3 DUP3 PUSH1 0x20 DUP4 ADD CALLDATACOPY PUSH1 0x0 PUSH1 0x20 DUP5 DUP4 ADD ADD MSTORE SWAP4 SWAP3 POP POP POP JUMP JUMPDEST PUSH1 0x0 PUSH2 0x2644 PUSH2 0x2606 DUP5 PUSH2 0x2DF7 JUMP JUMPDEST SWAP1 POP DUP3 DUP2 MSTORE DUP4 DUP4 DUP4 ADD GT ISZERO PUSH2 0x2658 JUMPI PUSH1 0x0 DUP1 REVERT JUMPDEST PUSH2 0x2666 DUP4 PUSH1 0x20 DUP4 ADD DUP5 PUSH2 0x2E8D JUMP JUMPDEST SWAP4 SWAP3 POP POP POP JUMP JUMPDEST DUP1 MLOAD PUSH2 0xB2B DUP2 PUSH2 0x2EFF JUMP JUMPDEST DUP1 MLOAD DUP1 ISZERO ISZERO DUP2 EQ PUSH2 0xB2B JUMPI PUSH1 0x0 DUP1 REVERT JUMPDEST PUSH1 0x0 DUP3 PUSH1 0x1F DUP4 ADD SLT PUSH2 0x2698 JUMPI DUP1 DUP2 REVERT JUMPDEST PUSH2 0x2666 DUP4 DUP4 MLOAD PUSH1 0x20 DUP6 ADD PUSH2 0x2636 JUMP JUMPDEST DUP1 MLOAD PUSH1 0x3 DUP2 LT PUSH2 0xB2B JUMPI PUSH1 0x0 DUP1 REVERT JUMPDEST PUSH1 0x0 DUP3 PUSH1 0x1F DUP4 ADD SLT PUSH2 0x26C6 JUMPI DUP1 DUP2 REVERT JUMPDEST PUSH2 0x2666 DUP4 DUP4 CALLDATALOAD PUSH1 0x20 DUP6 ADD PUSH2 0x25F8 JUMP JUMPDEST PUSH1 0x0 PUSH1 0x20 DUP3 DUP5 SUB SLT ISZERO PUSH2 0x26E6 JUMPI DUP1 DUP2 REVERT JUMPDEST DUP2 CALLDATALOAD PUSH2 0x2666 DUP2 PUSH2 0x2EFF JUMP JUMPDEST PUSH1 0x0 PUSH1 0x20 DUP3 DUP5 SUB SLT ISZERO PUSH2 0x2702 JUMPI DUP1 DUP2 REVERT JUMPDEST DUP2 MLOAD PUSH2 0x2666 DUP2 PUSH2 0x2EFF JUMP JUMPDEST PUSH1 0x0 PUSH1 0x20 DUP3 DUP5 SUB SLT ISZERO PUSH2 0x271E JUMPI DUP1 DUP2 REVERT JUMPDEST PUSH2 0x2666 DUP3 PUSH2 0x2678 JUMP JUMPDEST PUSH1 0x0 DUP1 PUSH1 0x0 PUSH1 0x60 DUP5 DUP7 SUB SLT ISZERO PUSH2 0x273B JUMPI DUP2 DUP3 REVERT JUMPDEST PUSH2 0x2744 DUP5 PUSH2 0x2678 JUMP JUMPDEST SWAP3 POP PUSH1 0x20 DUP5 ADD MLOAD SWAP2 POP PUSH1 0x40 DUP5 ADD MLOAD SWAP1 POP SWAP3 POP SWAP3 POP SWAP3 JUMP JUMPDEST PUSH1 0x0 PUSH1 0x20 DUP3 DUP5 SUB SLT ISZERO PUSH2 0x276C JUMPI DUP1 DUP2 REVERT JUMPDEST DUP2 CALLDATALOAD PUSH1 0x1 PUSH1 0x1 PUSH1 0xF8 SHL SUB NOT DUP2 AND DUP2 EQ PUSH2 0x2666 JUMPI DUP2 DUP3 REVERT JUMPDEST PUSH1 0x0 PUSH1 0x20 DUP3 DUP5 SUB SLT ISZERO PUSH2 0x2794 JUMPI DUP1 DUP2 REVERT JUMPDEST POP CALLDATALOAD SWAP2 SWAP1 POP JUMP JUMPDEST PUSH1 0x0 PUSH1 0x20 DUP3 DUP5 SUB SLT ISZERO PUSH2 0x27AC JUMPI DUP1 DUP2 REVERT JUMPDEST POP MLOAD SWAP2 SWAP1 POP JUMP JUMPDEST PUSH1 0x0 DUP1 PUSH1 0x40 DUP4 DUP6 SUB SLT ISZERO PUSH2 0x27C5 JUMPI DUP2 DUP3 REVERT JUMPDEST POP POP DUP1 CALLDATALOAD SWAP3 PUSH1 0x20 SWAP1 SWAP2 ADD CALLDATALOAD SWAP2 POP JUMP JUMPDEST PUSH1 0x0 PUSH1 0x20 DUP3 DUP5 SUB SLT ISZERO PUSH2 0x27E5 JUMPI DUP1 DUP2 REVERT JUMPDEST DUP2 CALLDATALOAD PUSH8 0xFFFFFFFFFFFFFFFF DUP2 GT ISZERO PUSH2 0x27FB JUMPI DUP2 DUP3 REVERT JUMPDEST DUP3 ADD PUSH1 0x1F DUP2 ADD DUP5 SGT PUSH2 0x280B JUMPI DUP2 DUP3 REVERT JUMPDEST PUSH2 0x21AB DUP5 DUP3 CALLDATALOAD PUSH1 0x20 DUP5 ADD PUSH2 0x25F8 JUMP JUMPDEST PUSH1 0x0 PUSH1 0x20 DUP3 DUP5 SUB SLT ISZERO PUSH2 0x282B JUMPI DUP1 DUP2 REVERT JUMPDEST DUP2 MLOAD PUSH1 0x7 DUP2 LT PUSH2 0x2666 JUMPI DUP2 DUP3 REVERT JUMPDEST PUSH1 0x0 PUSH1 0x20 DUP3 DUP5 SUB SLT ISZERO PUSH2 0x284A JUMPI DUP1 DUP2 REVERT JUMPDEST DUP2 CALLDATALOAD PUSH8 0xFFFFFFFFFFFFFFFF DUP2 GT ISZERO PUSH2 0x2860 JUMPI DUP2 DUP3 REVERT JUMPDEST PUSH2 0x21AB DUP5 DUP3 DUP6 ADD PUSH2 0x26B6 JUMP JUMPDEST PUSH1 0x0 PUSH1 0x20 DUP3 DUP5 SUB SLT ISZERO PUSH2 0x287D JUMPI DUP1 DUP2 REVERT JUMPDEST DUP2 MLOAD PUSH8 0xFFFFFFFFFFFFFFFF DUP2 GT ISZERO PUSH2 0x2893 JUMPI DUP2 DUP3 REVERT JUMPDEST DUP3 ADD PUSH1 0x1F DUP2 ADD DUP5 SGT PUSH2 0x28A3 JUMPI DUP2 DUP3 REVERT JUMPDEST PUSH2 0x21AB DUP5 DUP3 MLOAD PUSH1 0x20 DUP5 ADD PUSH2 0x2636 JUMP JUMPDEST PUSH1 0x0 DUP1 PUSH1 0x0 DUP1 PUSH1 0x0 DUP1 PUSH1 0xC0 DUP8 DUP10 SUB SLT ISZERO PUSH2 0x28CA JUMPI DUP4 DUP5 REVERT JUMPDEST DUP7 CALLDATALOAD PUSH8 0xFFFFFFFFFFFFFFFF DUP1 DUP3 GT ISZERO PUSH2 0x28E1 JUMPI DUP6 DUP7 REVERT JUMPDEST PUSH2 0x28ED DUP11 DUP4 DUP12 ADD PUSH2 0x26B6 JUMP JUMPDEST SWAP8 POP PUSH1 0x20 DUP10 ADD CALLDATALOAD SWAP7 POP PUSH1 0x40 DUP10 ADD CALLDATALOAD SWAP6 POP PUSH1 0x60 DUP10 ADD CALLDATALOAD SWAP2 POP PUSH2 0x290D DUP3 PUSH2 0x2EFF JUMP JUMPDEST SWAP1 SWAP4 POP PUSH1 0x80 DUP9 ADD CALLDATALOAD SWAP1 DUP1 DUP3 GT ISZERO PUSH2 0x2922 JUMPI DUP4 DUP5 REVERT JUMPDEST POP PUSH2 0x292F DUP10 DUP3 DUP11 ADD PUSH2 0x26B6 JUMP JUMPDEST SWAP3 POP POP PUSH1 0xA0 DUP8 ADD CALLDATALOAD SWAP1 POP SWAP3 SWAP6 POP SWAP3 SWAP6 POP SWAP3 SWAP6 JUMP JUMPDEST PUSH1 0x0 DUP1 PUSH1 0x0 DUP1 PUSH1 0x80 DUP6 DUP8 SUB SLT ISZERO PUSH2 0x2958 JUMPI DUP2 DUP3 REVERT JUMPDEST DUP5 CALLDATALOAD PUSH8 0xFFFFFFFFFFFFFFFF DUP2 GT ISZERO PUSH2 0x296E JUMPI DUP3 DUP4 REVERT JUMPDEST PUSH2 0x297A DUP8 DUP3 DUP9 ADD PUSH2 0x26B6 JUMP JUMPDEST SWAP8 PUSH1 0x20 DUP8 ADD CALLDATALOAD SWAP8 POP PUSH1 0x40 DUP8 ADD CALLDATALOAD SWAP7 PUSH1 0x60 ADD CALLDATALOAD SWAP6 POP SWAP4 POP POP POP POP JUMP JUMPDEST PUSH1 0x0 PUSH1 0x20 DUP3 DUP5 SUB SLT ISZERO PUSH2 0x29A6 JUMPI DUP1 DUP2 REVERT JUMPDEST DUP2 MLOAD PUSH8 0xFFFFFFFFFFFFFFFF DUP1 DUP3 GT ISZERO PUSH2 0x29BD JUMPI DUP3 DUP4 REVERT JUMPDEST SWAP1 DUP4 ADD SWAP1 PUSH1 0xC0 DUP3 DUP7 SUB SLT ISZERO PUSH2 0x29D0 JUMPI DUP3 DUP4 REVERT JUMPDEST PUSH2 0x29DA PUSH1 0xC0 PUSH2 0x2DC6 JUMP JUMPDEST DUP3 MLOAD PUSH1 0x4 DUP2 LT PUSH2 0x29E8 JUMPI DUP5 DUP6 REVERT JUMPDEST DUP1 DUP3 MSTORE POP PUSH1 0x20 DUP4 ADD MLOAD PUSH1 0x20 DUP3 ADD MSTORE PUSH1 0x40 DUP4 ADD MLOAD PUSH1 0x40 DUP3 ADD MSTORE PUSH1 0x60 DUP4 ADD MLOAD DUP3 DUP2 GT ISZERO PUSH2 0x2A11 JUMPI DUP5 DUP6 REVERT JUMPDEST PUSH2 0x2A1D DUP8 DUP3 DUP7 ADD PUSH2 0x2688 JUMP JUMPDEST PUSH1 0x60 DUP4 ADD MSTORE POP PUSH1 0x80 DUP4 ADD MLOAD PUSH1 0x80 DUP3 ADD MSTORE PUSH1 0xA0 DUP4 ADD MLOAD PUSH1 0xA0 DUP3 ADD MSTORE DUP1 SWAP4 POP POP POP POP SWAP3 SWAP2 POP POP JUMP JUMPDEST PUSH1 0x0 PUSH1 0x20 DUP3 DUP5 SUB SLT ISZERO PUSH2 0x2A54 JUMPI DUP1 DUP2 REVERT JUMPDEST DUP2 MLOAD PUSH8 0xFFFFFFFFFFFFFFFF DUP1 DUP3 GT ISZERO PUSH2 0x2A6B JUMPI DUP3 DUP4 REVERT JUMPDEST SWAP1 DUP4 ADD SWAP1 PUSH1 0xE0 DUP3 DUP7 SUB SLT ISZERO PUSH2 0x2A7E JUMPI DUP3 DUP4 REVERT JUMPDEST PUSH2 0x2A88 PUSH1 0xE0 PUSH2 0x2DC6 JUMP JUMPDEST PUSH2 0x2A91 DUP4 PUSH2 0x266D JUMP JUMPDEST DUP2 MSTORE PUSH2 0x2A9F PUSH1 0x20 DUP5 ADD PUSH2 0x266D JUMP JUMPDEST PUSH1 0x20 DUP3 ADD MSTORE PUSH1 0x40 DUP4 ADD MLOAD PUSH1 0x40 DUP3 ADD MSTORE PUSH2 0x2ABA PUSH1 0x60 DUP5 ADD PUSH2 0x26A7 JUMP JUMPDEST PUSH1 0x60 DUP3 ADD MSTORE PUSH1 0x80 DUP4 ADD MLOAD DUP3 DUP2 GT ISZERO PUSH2 0x2AD0 JUMPI DUP5 DUP6 REVERT JUMPDEST PUSH2 0x2ADC DUP8 DUP3 DUP7 ADD PUSH2 0x2688 JUMP JUMPDEST PUSH1 0x80 DUP4 ADD MSTORE POP PUSH1 0xA0 DUP4 ADD MLOAD PUSH1 0xA0 DUP3 ADD MSTORE PUSH1 0xC0 DUP4 ADD MLOAD PUSH1 0xC0 DUP3 ADD MSTORE DUP1 SWAP4 POP POP POP POP SWAP3 SWAP2 POP POP JUMP JUMPDEST PUSH1 0x0 PUSH2 0x120 DUP1 DUP4 DUP6 SUB SLT ISZERO PUSH2 0x2B15 JUMPI DUP2 DUP3 REVERT JUMPDEST PUSH2 0x2B1E DUP2 PUSH2 0x2DC6 JUMP JUMPDEST SWAP1 POP PUSH2 0x2B29 DUP4 PUSH2 0x26A7 JUMP JUMPDEST DUP2 MSTORE PUSH1 0x20 DUP4 ADD MLOAD PUSH1 0x20 DUP3 ADD MSTORE PUSH1 0x40 DUP4 ADD MLOAD PUSH1 0x40 DUP3 ADD MSTORE PUSH1 0x60 DUP4 ADD MLOAD PUSH1 0x60 DUP3 ADD MSTORE PUSH1 0x80 DUP4 ADD MLOAD PUSH1 0x80 DUP3 ADD MSTORE PUSH1 0xA0 DUP4 ADD MLOAD PUSH1 0xA0 DUP3 ADD MSTORE PUSH1 0xC0 DUP4 ADD MLOAD PUSH1 0xC0 DUP3 ADD MSTORE PUSH1 0xE0 DUP4 ADD MLOAD PUSH1 0xE0 DUP3 ADD MSTORE PUSH2 0x100 DUP1 DUP5 ADD MLOAD DUP2 DUP4 ADD MSTORE POP DUP1 SWAP2 POP POP SWAP3 SWAP2 POP POP JUMP JUMPDEST PUSH1 0x0 DUP1 PUSH1 0x0 DUP1 PUSH1 0x60 DUP6 DUP8 SUB SLT ISZERO PUSH2 0x2B9C JUMPI DUP2 DUP3 REVERT JUMPDEST DUP5 CALLDATALOAD SWAP4 POP PUSH1 0x20 DUP6 ADD CALLDATALOAD SWAP3 POP PUSH1 0x40 DUP6 ADD CALLDATALOAD PUSH8 0xFFFFFFFFFFFFFFFF DUP1 DUP3 GT ISZERO PUSH2 0x2BC1 JUMPI DUP4 DUP5 REVERT JUMPDEST DUP2 DUP8 ADD SWAP2 POP DUP8 PUSH1 0x1F DUP4 ADD SLT PUSH2 0x2BD4 JUMPI DUP4 DUP5 REVERT JUMPDEST DUP2 CALLDATALOAD DUP2 DUP2 GT ISZERO PUSH2 0x2BE2 JUMPI DUP5 DUP6 REVERT JUMPDEST DUP9 PUSH1 0x20 DUP3 DUP6 ADD ADD GT ISZERO PUSH2 0x2BF3 JUMPI DUP5 DUP6 REVERT JUMPDEST SWAP6 SWAP9 SWAP5 SWAP8 POP POP PUSH1 0x20 ADD SWAP5 POP POP POP JUMP JUMPDEST PUSH1 0x0 DUP1 PUSH1 0x40 DUP4 DUP6 SUB SLT ISZERO PUSH2 0x2C14 JUMPI DUP2 DUP3 REVERT JUMPDEST POP POP DUP1 MLOAD PUSH1 0x20 SWAP1 SWAP2 ADD MLOAD SWAP1 SWAP3 SWAP1 SWAP2 POP JUMP JUMPDEST PUSH1 0x0 DUP2 MLOAD DUP1 DUP5 MSTORE PUSH2 0x2C3D DUP2 PUSH1 0x20 DUP7 ADD PUSH1 0x20 DUP7 ADD PUSH2 0x2E8D JUMP JUMPDEST PUSH1 0x1F ADD PUSH1 0x1F NOT AND SWAP3 SWAP1 SWAP3 ADD PUSH1 0x20 ADD SWAP3 SWAP2 POP POP JUMP JUMPDEST PUSH1 0x0 DUP3 MLOAD PUSH2 0x2C63 DUP2 DUP5 PUSH1 0x20 DUP8 ADD PUSH2 0x2E8D JUMP JUMPDEST SWAP2 SWAP1 SWAP2 ADD SWAP3 SWAP2 POP POP JUMP JUMPDEST PUSH1 0x1 PUSH1 0x1 PUSH1 0xA0 SHL SUB DUP8 DUP2 AND DUP3 MSTORE DUP7 AND PUSH1 0x20 DUP3 ADD MSTORE PUSH1 0x40 DUP2 ADD DUP6 SWAP1 MSTORE PUSH1 0x60 DUP2 ADD DUP5 SWAP1 MSTORE PUSH1 0xC0 PUSH1 0x80 DUP3 ADD DUP2 SWAP1 MSTORE PUSH1 0x0 SWAP1 PUSH2 0x2CA7 SWAP1 DUP4 ADD DUP6 PUSH2 0x2C25 JUMP JUMPDEST DUP3 DUP2 SUB PUSH1 0xA0 DUP5 ADD MSTORE PUSH2 0x2CB9 DUP2 DUP6 PUSH2 0x2C25 JUMP JUMPDEST SWAP10 SWAP9 POP POP POP POP POP POP POP POP POP JUMP JUMPDEST PUSH1 0x0 DUP5 DUP3 MSTORE DUP4 PUSH1 0x20 DUP4 ADD MSTORE PUSH1 0x60 PUSH1 0x40 DUP4 ADD MSTORE PUSH2 0x22AD PUSH1 0x60 DUP4 ADD DUP5 PUSH2 0x2C25 JUMP JUMPDEST PUSH1 0x0 DUP6 DUP3 MSTORE DUP5 PUSH1 0x20 DUP4 ADD MSTORE DUP4 PUSH1 0x40 DUP4 ADD MSTORE PUSH1 0x80 PUSH1 0x60 DUP4 ADD MSTORE PUSH2 0x2D0A PUSH1 0x80 DUP4 ADD DUP5 PUSH2 0x2C25 JUMP JUMPDEST SWAP7 SWAP6 POP POP POP POP POP POP JUMP JUMPDEST PUSH1 0x0 PUSH1 0x20 DUP3 MSTORE PUSH2 0x2666 PUSH1 0x20 DUP4 ADD DUP5 PUSH2 0x2C25 JUMP JUMPDEST PUSH1 0x20 DUP2 ADD PUSH1 0x7 DUP4 LT PUSH2 0x2D3B JUMPI PUSH2 0x2D3B PUSH2 0x2ED3 JUMP JUMPDEST SWAP2 SWAP1 MSTORE SWAP1 JUMP JUMPDEST PUSH1 0x20 DUP2 ADD PUSH1 0x3 DUP4 LT PUSH2 0x2D3B JUMPI PUSH2 0x2D3B PUSH2 0x2ED3 JUMP JUMPDEST PUSH1 0x0 PUSH1 0xA0 DUP3 MSTORE PUSH2 0x2D68 PUSH1 0xA0 DUP4 ADD DUP9 PUSH2 0x2C25 JUMP JUMPDEST SWAP1 POP DUP6 PUSH1 0x20 DUP4 ADD MSTORE DUP5 PUSH1 0x40 DUP4 ADD MSTORE DUP4 PUSH1 0x60 DUP4 ADD MSTORE PUSH1 0xFF DUP4 AND PUSH1 0x80 DUP4 ADD MSTORE SWAP7 SWAP6 POP POP POP POP POP POP JUMP JUMPDEST PUSH1 0x20 DUP1 DUP3 MSTORE PUSH1 0x1B SWAP1 DUP3 ADD MSTORE PUSH32 0x4552524F523A434D502D3030323A4E4F545F434F4D504F4E454E540000000000 PUSH1 0x40 DUP3 ADD MSTORE PUSH1 0x60 ADD SWAP1 JUMP JUMPDEST PUSH1 0x40 MLOAD PUSH1 0x1F DUP3 ADD PUSH1 0x1F NOT AND DUP2 ADD PUSH8 0xFFFFFFFFFFFFFFFF DUP2 GT DUP3 DUP3 LT OR ISZERO PUSH2 0x2DEF JUMPI PUSH2 0x2DEF PUSH2 0x2EE9 JUMP JUMPDEST PUSH1 0x40 MSTORE SWAP2 SWAP1 POP JUMP JUMPDEST PUSH1 0x0 PUSH8 0xFFFFFFFFFFFFFFFF DUP3 GT ISZERO PUSH2 0x2E11 JUMPI PUSH2 0x2E11 PUSH2 0x2EE9 JUMP JUMPDEST POP PUSH1 0x1F ADD PUSH1 0x1F NOT AND PUSH1 0x20 ADD SWAP1 JUMP JUMPDEST PUSH1 0x0 DUP3 NOT DUP3 GT ISZERO PUSH2 0x2E32 JUMPI PUSH2 0x2E32 PUSH2 0x2EBD JUMP JUMPDEST POP ADD SWAP1 JUMP JUMPDEST PUSH1 0x0 DUP3 PUSH2 0x2E52 JUMPI PUSH4 0x4E487B71 PUSH1 0xE0 SHL DUP2 MSTORE PUSH1 0x12 PUSH1 0x4 MSTORE PUSH1 0x24 DUP2 REVERT JUMPDEST POP DIV SWAP1 JUMP JUMPDEST PUSH1 0x0 DUP2 PUSH1 0x0 NOT DIV DUP4 GT DUP3 ISZERO ISZERO AND ISZERO PUSH2 0x2E71 JUMPI PUSH2 0x2E71 PUSH2 0x2EBD JUMP JUMPDEST POP MUL SWAP1 JUMP JUMPDEST PUSH1 0x0 DUP3 DUP3 LT ISZERO PUSH2 0x2E88 JUMPI PUSH2 0x2E88 PUSH2 0x2EBD JUMP JUMPDEST POP SUB SWAP1 JUMP JUMPDEST PUSH1 0x0 JUMPDEST DUP4 DUP2 LT ISZERO PUSH2 0x2EA8 JUMPI DUP2 DUP2 ADD MLOAD DUP4 DUP3 ADD MSTORE PUSH1 0x20 ADD PUSH2 0x2E90 JUMP JUMPDEST DUP4 DUP2 GT ISZERO PUSH2 0x2EB7 JUMPI PUSH1 0x0 DUP5 DUP5 ADD MSTORE JUMPDEST POP POP POP POP JUMP JUMPDEST PUSH4 0x4E487B71 PUSH1 0xE0 SHL PUSH1 0x0 MSTORE PUSH1 0x11 PUSH1 0x4 MSTORE PUSH1 0x24 PUSH1 0x0 REVERT JUMPDEST PUSH4 0x4E487B71 PUSH1 0xE0 SHL PUSH1 0x0 MSTORE PUSH1 0x21 PUSH1 0x4 MSTORE PUSH1 0x24 PUSH1 0x0 REVERT JUMPDEST PUSH4 0x4E487B71 PUSH1 0xE0 SHL PUSH1 0x0 MSTORE PUSH1 0x41 PUSH1 0x4 MSTORE PUSH1 0x24 PUSH1 0x0 REVERT JUMPDEST PUSH1 0x1 PUSH1 0x1 PUSH1 0xA0 SHL SUB DUP2 AND DUP2 EQ PUSH2 0x903 JUMPI PUSH1 0x0 DUP1 REVERT INVALID LOG2 PUSH5 0x6970667358 0x22 SLT KECCAK256 0x29 DUP15 XOR SIGNEXTEND 0xE5 SSTORE 0xF8 BYTE CALLDATACOPY PUSH2 0x6817 AND 0xD0 AND DUP10 0x24 0xA7 0xDF DUP6 SWAP13 LT PC 0xD SELFBALANCE CODECOPY CODECOPY PUSH3 0xBD12EF CALL PUSH5 0x736F6C6343 STOP ADDMOD MUL STOP CALLER ",
    "sha1": "55264189233b532d0b1bd94a7c44277f91915959",
    "source": "// SPDX-License-Identifier: Apache-2.0\npragma solidity ^0.8.2;\n\nimport \"@etherisc/gif-interface/contracts/components/Product.sol\";\n\nimport \"../token/Usdc.sol\";\nimport \"./NebulaArbitrator.sol\";\n\ncontract NebulaProduct is Product {\n    // constants\n    bytes32 public constant VERSION = \"0.0.1\";\n    bytes32 public constant POLICY_FLOW = \"PolicyDefaultFlow\";\n    uint256 public maxPolicyCount = 100;\n    uint256 public maxSumInsuredAmount = 10 ** 7;\n\n    // leads to %5 premiums on object value\n    // uint256 public constant OBJECT_VALUE_DIVISOR = 100;\n\n    // payout specs\n    // uint256 public constant PAYOUT_FACTOR_MEDIUM = 20;\n    uint256 public constant PAYOUT_FACTOR_LARGE = 100;\n\n    bytes32[] private _applications;\n\n    NebulaArbitrator public arbitrator;\n\n    struct Application {\n        address policyHolder;\n        address nominee;\n        uint256 sumInsuredAmount;\n        uint256 premium;\n    }\n\n    Application[] public listOfApplications;\n\n    mapping(string => bool) public activePolicy;\n\n    // events\n    event LogNebulaApplicationSubmitted(\n        address policyHolder,\n        address nominee,\n        uint256 sumInsuredAmount,\n        uint256 premiumAmount\n    );\n    event LogNebulaApplicationAccepted(\n        bytes32 processId,\n        address policyHolder,\n        uint256 sumInsured,\n        address nominee\n    );\n\n    event LogNebulaApplicationRejected(\n        bytes32 processId,\n        address policyHolder,\n        uint256 premium\n    );\n\n    event LogNebulaPremiumPaymentSuccess(\n        bytes32 processId,\n        uint256 feeAmount,\n        uint256 netAmount\n    );\n    event LogNebulaPremiumPaymentFailed(\n        bytes32 processId,\n        address policyHolder,\n        uint256 premium\n    );\n\n    event LogNebulaPolicyCreated(\n        bytes32 processId,\n        address policyHolder,\n        address nominee,\n        uint256 sumInsuredAmount,\n        uint256 premium\n    );\n    // event LogNebulaPolicyExpired(string objectName, bytes32 processId);\n\n    event LogNebulaNomineeFound(string nominee);\n    event LogNebulaClaimConfirmed(\n        bytes32 processId,\n        uint256 claimId,\n        uint256 payoutAmount\n    );\n\n    event LogNebulaClaimDenied(\n        bytes32 processId,\n        uint256 claimId,\n        uint256 payoutAmount\n    );\n\n    event LogNebulaPayoutExecuted(\n        bytes32 processId,\n        uint256 claimId,\n        uint256 payoutId,\n        uint256 payoutAmount\n    );\n\n    event LogPayoutZero(uint256 payoutAmount);\n\n    event LogNebulaPolicyExpired(bytes32 processid);\n\n    // event  LogNebulaClaimConfirmed(\n    //             uint256 policyId,\n    //             uint256 claimId,\n    //             uint256 payoutAmount\n    //         );\n\n    constructor(\n        bytes32 productName,\n        address token,\n        uint256 riskpoolId,\n        address registry\n    ) Product(productName, token, POLICY_FLOW, riskpoolId, registry) {\n        arbitrator = new NebulaArbitrator();\n    }\n\n    receive() external payable {}\n\n    function applicationsCount()\n        external\n        view\n        returns (uint256 numberOfApplications)\n    {\n        return _applications.length;\n    }\n\n    function updateMaxPolicyCount(uint256 incr) external onlyOwner {\n        require(incr <= 10, \"ERROR:NEBULA: MAX ALLOWED INCREMENT IS 10\");\n        maxPolicyCount = maxPolicyCount + incr;\n    }\n\n    function updateMaxSumInsured(uint256 incr) external onlyOwner {\n        require(incr == 10, \"ERROR:NEBULA: ALLOWED INCREMENT IS FACTOR OF 10\");\n        maxSumInsuredAmount = maxSumInsuredAmount * incr;\n    }\n\n    function viewApplication(\n        uint256 applicationId\n    )\n        external\n        view\n        returns (\n            address policyHolder,\n            address nominee,\n            uint256 sumInsuredAmount,\n            uint256 premium\n        )\n    {\n        require(\n            applicationId >= 0 && applicationId < _applications.length,\n            \"ERROR:NEBULA-001:APPLICATION_ID_INCORRECT\"\n        );\n        return (\n            listOfApplications[applicationId].policyHolder,\n            listOfApplications[applicationId].nominee,\n            listOfApplications[applicationId].sumInsuredAmount,\n            listOfApplications[applicationId].premium\n        );\n    }\n\n    function getApplicationId(\n        uint256 idx\n    ) external view returns (bytes32 processId) {\n        require(\n            idx < _applications.length,\n            \"ERROR:NEBULA-002:APPLICATION_INDEX_TOO_LARGE\"\n        );\n        return _applications[idx];\n    }\n\n    function decodeApplicationParameterFromData(\n        bytes memory data\n    ) public pure returns (string memory objectName) {\n        return abi.decode(data, (string));\n    }\n\n    function encodeApplicationParametersToData(\n        string memory email\n    ) public pure returns (bytes memory data) {\n        // return abi.encode(abi.encodePacked(email, \"|\", policyHolder, \"|\", nominee, \"|\", sumInsured, \"|\", premium));\n        return abi.encode(abi.encodePacked(email));\n    }\n\n    function checkEligibilty(\n        string memory email,\n        uint256 age,\n        uint256 gender,\n        uint256 sumInsuredAmount\n    )\n        external\n        returns (\n            string memory e,\n            uint256 a,\n            uint256 g,\n            uint256 oV,\n            uint8 status\n        )\n    {\n        if (sumInsuredAmount <= 0 || sumInsuredAmount >= 10 ** 9) {\n            return (email, age, gender, sumInsuredAmount, 0);\n        }\n\n        if (activePolicy[email]) {\n            return (email, age, gender, sumInsuredAmount, 0);\n        }\n\n        if (activePolicy[email]) {\n            return (email, age, gender, sumInsuredAmount, 0);\n        }\n\n        if (age < 18 || age > 60) {\n            return (email, age, gender, sumInsuredAmount, 0);\n        }\n\n        return (email, age, gender, sumInsuredAmount, 1);\n    }\n\n    function approveTokenTransfer(uint256 amount) external {\n        Usdc(this.getToken()).approve(\n            _instanceService.getTreasuryAddress(),\n            amount\n        );\n    }\n\n    function applyForPolicy(\n        string memory email,\n        uint256 age,\n        uint256 gender,\n        address nominee,\n        string memory objectName,\n        uint256 sumInsuredAmount\n    ) external returns (bytes32 processId) {\n        // Validate input parameters\n        require(sumInsuredAmount > 0, \"ERROR:NEBULA-003:OBJECT_VALUE_ZERO\");\n        require(!activePolicy[email], \"ERROR:NEBULA-004:ACTIVE_POLICY_EXISTS\");\n        require(age >= 18 && age <= 60, \"ERROR:NEBULA-005:OUTSIDE_AGE_LIMITS\");\n        require(\n            sumInsuredAmount <= maxSumInsuredAmount,\n            \"ERROR:NEBULA-006:OBJECT_VALUE_TOO_LARGE: MAX 10 USDC\"\n        );\n        require(\n            _applications.length < maxPolicyCount,\n            \"ERROR: MAX POLICY COUNT REACHED\"\n        );\n        // Create and underwrite new application\n        // address policyHolder = msg.sender;\n        uint256 premiumAmount = calculatePremium(sumInsuredAmount);\n        //  require(msg.value >= premiumAmount, \"ERROR:FI-014:NO_PREMIUM\");\n        // require(policyHolder.balance > premiumAmount, \"ERROR:NEBULA-007:INSUFFICIENT_BALANCE\");\n        // require(msg.value < premiumAmount, \"ERROR:NEBULA-007:PREMIUM_AMOUNT_INCORRECT\");\n        // address tokenAddress = this.getToken();\n        // Usdc token = Usdc( this.getToken());\n        // Usdc(this.getToken()).approve(_instanceService.getTreasuryAddress(), premiumAmount);\n        // bool premiumPaid = token.transferFrom(msg.sender, _instanceService.getTreasuryAddress(), premiumAmount);\n        // require(Usdc(this.getToken()).transferFrom(msg.sender, _instanceService.getTreasuryAddress(), premiumAmount), \"ERROR:NEBULA-007:PREMIUM_AMOUNT_INCORRECT\");\n\n        bytes memory metaData = abi.encode(nominee);\n\n        bytes memory applicationData = encodeApplicationParametersToData(email);\n\n        processId = _newApplication(\n            msg.sender,\n            nominee,\n            premiumAmount,\n            sumInsuredAmount,\n            metaData,\n            applicationData\n        );\n\n        require(\n            Usdc(this.getToken()).allowance(\n                msg.sender,\n                _instanceService.getTreasuryAddress()\n            ) >= premiumAmount,\n            \"ERROR:NEBULA-PREMIUM-007:PREMIUM_AMOUNT_INCORRECT\"\n        );\n\n        bool success = _underwrite(processId);\n        _applications.push(processId);\n        // Application memory application = Application(policyHolder, nominee, sumInsuredAmount, premiumAmount);\n        listOfApplications.push(\n            Application(msg.sender, nominee, sumInsuredAmount, premiumAmount)\n        );\n\n        if (success) {\n            activePolicy[email] = true;\n            //    (bool success, ,) = collectPremium(processId, premiumAmount);\n\n            LogNebulaPolicyCreated(\n                processId,\n                msg.sender,\n                nominee,\n                sumInsuredAmount,\n                premiumAmount\n            );\n        } else {\n            LogNebulaApplicationRejected(processId, msg.sender, premiumAmount);\n        }\n\n        //  return processId;\n\n        // if (msg.value == premiumAmount) {\n        //     (bool success, ,) = collectPremium(processId, premiumAmount);\n\n        //     if (success) {\n        //         bool policyId = acceptApplication(processId);\n        //         LogNebulaPolicyCreated(processId, premiumAmount);\n        //         return (processId, policyId);\n        //     } else {\n        //         declineApplication(processId);\n        //         LogNebulaPremiumPaymentFailed(processId, policyHolder, premiumAmount);\n        //         LogNebulaApplicationRejected(processId, policyHolder, premiumAmount);\n        //         return (processId, false);\n        //     }\n        // } else {\n        //     LogNebulaApplicationRejected(processId, policyHolder, premiumAmount);\n        //     return (processId, false);\n        // }\n        // return (processId, false);\n    }\n\n    function acceptApplication(\n        bytes32 processId\n    ) external returns (bool _policyId) {\n        //  _policyId = _underwrite(processId);\n        return _underwrite(processId);\n    }\n\n    function declineApplication(\n        bytes32 processId\n    ) external returns (bool status) {\n        _decline(processId);\n        return true;\n    }\n\n    function collectPremium(\n        bytes32 processId,\n        uint256 amount\n    ) public returns (bool success, uint256 feeAmount, uint256 netAmount) {\n        (success, feeAmount, netAmount) = _collectPremium(processId);\n        LogNebulaPremiumPaymentSuccess(processId, feeAmount, netAmount);\n        return (success, feeAmount, netAmount);\n    }\n\n    function calculatePremium(\n        uint256 sumInsuredAmount\n    ) public pure returns (uint256 premiumAmount) {\n        return (10 * sumInsuredAmount) / 100;\n    }\n\n    function expirePolicy(bytes32 processId) external onlyOwner {\n        // Get policy data\n        IPolicy.Application memory application = _getApplication(processId);\n        string memory objectName = decodeApplicationParameterFromData(\n            application.data\n        );\n\n        // Validate input parameter\n        require(activePolicy[objectName], \"ERROR:NEBULA-005:EXPIRED_POLICY\");\n\n        _expire(processId);\n        activePolicy[objectName] = false;\n\n        emit LogNebulaPolicyExpired(processId);\n    }\n\n    //  function raiseClaim(\n    //     bytes32 policyId\n    // ) external  {\n\n    //     IPolicy.Application memory applicationData = _getApplication(policyId);\n    //     uint256 sumInsured = applicationData.sumInsuredAmount;\n    //     string memory objectName = decodeApplicationParameterFromData(\n    //         applicationData.data\n    //     );\n    //     address payable policyHolder = payable(_getMetadata(policyId).owner);\n    //     // string memory nominee = decodeApplicationParameterFromData(_getMetadata(policyId).data);\n    //     // emit LogNebulaNomineeFound(nominee);\n\n    //     require(\n    //          msg.sender == policyHolder,\n    //         \"ERROR:NEBULA-PRD-003:ACCESS_DENIED\"\n    //     );\n\n    //     // Validate input parameter\n    //     require(activePolicy[objectName], \"ERROR:FI-006:EXPIRED_POLICY\");\n\n    //     // Get oracle response data\n    //     // bytes1 category = \"L\";\n\n    //     // Claim handling based on reponse to greeting provided by oracle\n    //     _handleClaim(policyId, policyHolder, sumInsured);\n    // }\n\n    function oracleCallback(\n        uint256 requestId,\n        bytes32 policyId,\n        bytes calldata response\n    ) external onlyOracle {\n        // emit LogFireOracleCallbackReceived(requestId, policyId, response);\n\n        // Get policy data for oracle response\n        /*\nstruct Application {\n        ApplicationState state;\n        uint256 premiumAmount;\n        uint256 sumInsuredAmount;\n        bytes data; \n        uint256 createdAt;\n        uint256 updatedAt;\n    }\n*/\n\n        IPolicy.Application memory applicationData = _getApplication(policyId);\n        uint256 sumInsured = applicationData.sumInsuredAmount;\n        string memory objectName = decodeApplicationParameterFromData(\n            applicationData.data\n        );\n        address payable policyHolder = payable(_getMetadata(policyId).owner);\n\n        // Validate input parameter\n        require(activePolicy[objectName], \"ERROR:NEBULA-006:EXPIRED_POLICY\");\n\n        // Get oracle response data\n        bytes1 fireCategory = abi.decode(response, (bytes1));\n\n        // Claim handling based on reponse to greeting provided by oracle\n        // _handleClaim(policyId, policyHolder, sumInsured);\n    }\n\n    // function getOracleId() external view returns (uint256 oracleId) {\n    //     return _oracleId;\n    // }\n\n    function handleClaim(bytes32 policyId) external {\n        IPolicy.Application memory applicationData = _getApplication(policyId);\n        uint256 sumInsured = applicationData.sumInsuredAmount;\n        uint256 payoutAmount = _calculatePayoutAmount(sumInsured);\n        IPolicy.Metadata memory metadata = _getMetadata(policyId);\n        require(metadata.nominee == msg.sender, \"ERROR:NEBULA-007:NOT_NOMINEE\");\n\n        // no claims handling for payouts == 0\n        if (payoutAmount > 0) {\n            // create escrow account\n\n            bytes memory responseData = abi.encodePacked(\"\");\n            uint256 claimId = _newClaim(policyId, payoutAmount, responseData);\n            _confirmClaim(policyId, claimId, payoutAmount);\n\n            emit LogNebulaClaimConfirmed(policyId, claimId, payoutAmount);\n\n            uint256 payoutId = _newPayout(\n                policyId,\n                claimId,\n                payoutAmount,\n                responseData\n            );\n\n            _processPayout(policyId, payoutId, arbitrator);\n\n            emit LogNebulaPayoutExecuted(\n                policyId,\n                claimId,\n                payoutId,\n                payoutAmount\n            );\n\n            _expire(policyId);\n            _close(policyId);\n        } else {\n            emit LogPayoutZero(payoutAmount);\n        }\n    }\n\n    function _calculatePayoutAmount(\n        uint256 sumInsured\n    ) internal pure returns (uint256 payoutAmount) {\n        payoutAmount = (PAYOUT_FACTOR_LARGE * sumInsured) / 100;\n    }\n}\n",
    "sourcePath": "contracts/nebula/NebulaProduct.sol",
    "type": "contract"
}